{
  "_format": "hh-sol-artifact-1",
  "contractName": "Enterprise",
  "sourceName": "contracts/dao/enterprise.sol",
  "abi": [
    {
      "inputs": [
        {
          "internalType": "address payable",
          "name": "CtAddress",
          "type": "address"
        },
        {
          "internalType": "address payable",
          "name": "IntAdress",
          "type": "address"
        }
      ],
      "stateMutability": "nonpayable",
      "type": "constructor"
    },
    {
      "inputs": [
        {
          "internalType": "address",
          "name": "user",
          "type": "address"
        }
      ],
      "name": "LetMembertoTrue",
      "outputs": [],
      "stateMutability": "nonpayable",
      "type": "function"
    },
    {
      "inputs": [
        {
          "internalType": "uint256",
          "name": "",
          "type": "uint256"
        }
      ],
      "name": "_members",
      "outputs": [
        {
          "internalType": "address",
          "name": "",
          "type": "address"
        }
      ],
      "stateMutability": "view",
      "type": "function"
    },
    {
      "inputs": [
        {
          "internalType": "address",
          "name": "",
          "type": "address"
        }
      ],
      "name": "_type",
      "outputs": [
        {
          "internalType": "uint256",
          "name": "",
          "type": "uint256"
        }
      ],
      "stateMutability": "view",
      "type": "function"
    },
    {
      "inputs": [
        {
          "internalType": "address",
          "name": "addr",
          "type": "address"
        }
      ],
      "name": "addMem",
      "outputs": [],
      "stateMutability": "nonpayable",
      "type": "function"
    },
    {
      "inputs": [],
      "name": "claim",
      "outputs": [],
      "stateMutability": "nonpayable",
      "type": "function"
    },
    {
      "inputs": [
        {
          "internalType": "address",
          "name": "",
          "type": "address"
        }
      ],
      "name": "efficiency",
      "outputs": [
        {
          "internalType": "uint256",
          "name": "",
          "type": "uint256"
        }
      ],
      "stateMutability": "view",
      "type": "function"
    },
    {
      "inputs": [],
      "name": "getAllMem",
      "outputs": [
        {
          "internalType": "address[]",
          "name": "",
          "type": "address[]"
        }
      ],
      "stateMutability": "view",
      "type": "function"
    },
    {
      "inputs": [],
      "name": "getQuota",
      "outputs": [
        {
          "internalType": "uint256",
          "name": "",
          "type": "uint256"
        }
      ],
      "stateMutability": "pure",
      "type": "function"
    },
    {
      "inputs": [
        {
          "internalType": "address",
          "name": "user",
          "type": "address"
        }
      ],
      "name": "isClaimed",
      "outputs": [
        {
          "internalType": "bool",
          "name": "",
          "type": "bool"
        }
      ],
      "stateMutability": "view",
      "type": "function"
    },
    {
      "inputs": [
        {
          "internalType": "address",
          "name": "user",
          "type": "address"
        }
      ],
      "name": "isMember",
      "outputs": [
        {
          "internalType": "bool",
          "name": "",
          "type": "bool"
        }
      ],
      "stateMutability": "view",
      "type": "function"
    },
    {
      "inputs": [
        {
          "internalType": "address",
          "name": "",
          "type": "address"
        }
      ],
      "name": "members",
      "outputs": [
        {
          "internalType": "bool",
          "name": "",
          "type": "bool"
        }
      ],
      "stateMutability": "view",
      "type": "function"
    },
    {
      "inputs": [],
      "name": "root",
      "outputs": [
        {
          "internalType": "bytes32",
          "name": "",
          "type": "bytes32"
        }
      ],
      "stateMutability": "view",
      "type": "function"
    },
    {
      "inputs": [
        {
          "internalType": "address",
          "name": "user",
          "type": "address"
        },
        {
          "internalType": "uint256",
          "name": "_type1",
          "type": "uint256"
        }
      ],
      "name": "setType",
      "outputs": [],
      "stateMutability": "nonpayable",
      "type": "function"
    }
  ],
  "bytecode": "0x608060405234801561001057600080fd5b5060405162000e7d38038062000e7d83398181016040528101906100349190610120565b81600460006101000a81548173ffffffffffffffffffffffffffffffffffffffff021916908373ffffffffffffffffffffffffffffffffffffffff16021790555080600560006101000a81548173ffffffffffffffffffffffffffffffffffffffff021916908373ffffffffffffffffffffffffffffffffffffffff1602179055505050610160565b600080fd5b600073ffffffffffffffffffffffffffffffffffffffff82169050919050565b60006100ed826100c2565b9050919050565b6100fd816100e2565b811461010857600080fd5b50565b60008151905061011a816100f4565b92915050565b60008060408385031215610137576101366100bd565b5b60006101458582860161010b565b92505060206101568582860161010b565b9150509250929050565b610d0d80620001706000396000f3fe608060405234801561001057600080fd5b50600436106100cf5760003560e01c80634e71d92d1161008c5780638cc08025116100665780638cc08025146102125780639aebf27914610242578063a230c5241461025e578063ebf0c7171461028e576100cf565b80634e71d92d146101bc5780635e23adec146101c65780637355f245146101f6576100cf565b806303216ec9146100d457806308ae4b0c146100f25780631ba3491d146101225780631bdb79e51461013e5780631df8ba771461016e5780633cf87dfc1461018c575b600080fd5b6100dc6102ac565b6040516100e9919061098b565b60405180910390f35b61010c600480360381019061010791906109de565b61033a565b6040516101199190610a26565b60405180910390f35b61013c60048036038101906101379190610a77565b61035a565b005b610158600480360381019061015391906109de565b610520565b6040516101659190610ac6565b60405180910390f35b610176610538565b6040516101839190610ac6565b60405180910390f35b6101a660048036038101906101a19190610ae1565b610542565b6040516101b39190610b1d565b60405180910390f35b6101c4610581565b005b6101e060048036038101906101db91906109de565b61065c565b6040516101ed9190610ac6565b60405180910390f35b610210600480360381019061020b91906109de565b610674565b005b61022c600480360381019061022791906109de565b6106da565b6040516102399190610a26565b60405180910390f35b61025c600480360381019061025791906109de565b6106ec565b005b610278600480360381019061027391906109de565b610746565b6040516102859190610a26565b60405180910390f35b61029661079b565b6040516102a39190610b51565b60405180910390f35b6060600180548060200260200160405190810160405280929190818152602001828054801561033057602002820191906000526020600020905b8160009054906101000a900473ffffffffffffffffffffffffffffffffffffffff1673ffffffffffffffffffffffffffffffffffffffff16815260200190600101908083116102e6575b5050505050905090565b60006020528060005260406000206000915054906101000a900460ff1681565b600560009054906101000a900473ffffffffffffffffffffffffffffffffffffffff1673ffffffffffffffffffffffffffffffffffffffff166361c259d6336040518263ffffffff1660e01b81526004016103b59190610b1d565b602060405180830381865afa1580156103d2573d6000803e3d6000fd5b505050506040513d601f19601f820116820180604052508101906103f69190610b98565b806104995750600560009054906101000a900473ffffffffffffffffffffffffffffffffffffffff1673ffffffffffffffffffffffffffffffffffffffff1663c3c9df15336040518263ffffffff1660e01b81526004016104579190610b1d565b602060405180830381865afa158015610474573d6000803e3d6000fd5b505050506040513d601f19601f820116820180604052508101906104989190610b98565b5b6104d8576040517f08c379a00000000000000000000000000000000000000000000000000000000081526004016104cf90610c22565b60405180910390fd5b80600260008473ffffffffffffffffffffffffffffffffffffffff1673ffffffffffffffffffffffffffffffffffffffff168152602001908152602001600020819055505050565b60036020528060005260406000206000915090505481565b6000612710905090565b6001818154811061055257600080fd5b906000526020600020016000915054906101000a900473ffffffffffffffffffffffffffffffffffffffff1681565b61058a336107a1565b6105c9576040517f08c379a00000000000000000000000000000000000000000000000000000000081526004016105c090610c8e565b60405180910390fd5b600460009054906101000a900473ffffffffffffffffffffffffffffffffffffffff1673ffffffffffffffffffffffffffffffffffffffff1663158a4988336127106040518363ffffffff1660e01b8152600401610628929190610cae565b600060405180830381600087803b15801561064257600080fd5b505af1158015610656573d6000803e3d6000fd5b50505050565b60026020528060005260406000206000915090505481565b6001819080600181540180825580915050600190039060005260206000200160009091909190916101000a81548173ffffffffffffffffffffffffffffffffffffffff021916908373ffffffffffffffffffffffffffffffffffffffff16021790555050565b60006106e5826107f6565b9050919050565b60016000808373ffffffffffffffffffffffffffffffffffffffff1673ffffffffffffffffffffffffffffffffffffffff16815260200190815260200160002060006101000a81548160ff02191690831515021790555050565b60008060008373ffffffffffffffffffffffffffffffffffffffff1673ffffffffffffffffffffffffffffffffffffffff16815260200190815260200160002060009054906101000a900460ff169050919050565b60065481565b60008060008373ffffffffffffffffffffffffffffffffffffffff1673ffffffffffffffffffffffffffffffffffffffff16815260200190815260200160002060009054906101000a900460ff169050919050565b6000600460009054906101000a900473ffffffffffffffffffffffffffffffffffffffff1673ffffffffffffffffffffffffffffffffffffffff16633e79e481836040518263ffffffff1660e01b81526004016108539190610b1d565b602060405180830381865afa158015610870573d6000803e3d6000fd5b505050506040513d601f19601f820116820180604052508101906108949190610b98565b9050919050565b600081519050919050565b600082825260208201905092915050565b6000819050602082019050919050565b600073ffffffffffffffffffffffffffffffffffffffff82169050919050565b60006108f2826108c7565b9050919050565b610902816108e7565b82525050565b600061091483836108f9565b60208301905092915050565b6000602082019050919050565b60006109388261089b565b61094281856108a6565b935061094d836108b7565b8060005b8381101561097e5781516109658882610908565b975061097083610920565b925050600181019050610951565b5085935050505092915050565b600060208201905081810360008301526109a5818461092d565b905092915050565b600080fd5b6109bb816108e7565b81146109c657600080fd5b50565b6000813590506109d8816109b2565b92915050565b6000602082840312156109f4576109f36109ad565b5b6000610a02848285016109c9565b91505092915050565b60008115159050919050565b610a2081610a0b565b82525050565b6000602082019050610a3b6000830184610a17565b92915050565b6000819050919050565b610a5481610a41565b8114610a5f57600080fd5b50565b600081359050610a7181610a4b565b92915050565b60008060408385031215610a8e57610a8d6109ad565b5b6000610a9c858286016109c9565b9250506020610aad85828601610a62565b9150509250929050565b610ac081610a41565b82525050565b6000602082019050610adb6000830184610ab7565b92915050565b600060208284031215610af757610af66109ad565b5b6000610b0584828501610a62565b91505092915050565b610b17816108e7565b82525050565b6000602082019050610b326000830184610b0e565b92915050565b6000819050919050565b610b4b81610b38565b82525050565b6000602082019050610b666000830184610b42565b92915050565b610b7581610a0b565b8114610b8057600080fd5b50565b600081519050610b9281610b6c565b92915050565b600060208284031215610bae57610bad6109ad565b5b6000610bbc84828501610b83565b91505092915050565b600082825260208201905092915050565b7f6d7573742062652074686520696e74656e64616e740000000000000000000000600082015250565b6000610c0c601583610bc5565b9150610c1782610bd6565b602082019050919050565b60006020820190508181036000830152610c3b81610bff565b9050919050565b7f41646472657373206973206e6f742061206d656d626572000000000000000000600082015250565b6000610c78601783610bc5565b9150610c8382610c42565b602082019050919050565b60006020820190508181036000830152610ca781610c6b565b9050919050565b6000604082019050610cc36000830185610b0e565b610cd06020830184610ab7565b939250505056fea26469706673582212200e6fd6397b7b5450604abfcb700b06ffaa6f1da3f133b544c43ff8c2ac77a18864736f6c63430008120033",
  "linkReferences": {},
  "deployedLinkReferences": {}
}