{
  "_format": "hh-sol-artifact-1",
  "contractName": "MerkleVerify",
  "sourceName": "contracts/merkle-tree-solidity/contracts/MerkleProof.sol",
  "abi": [
    {
      "inputs": [
        {
          "internalType": "uint256",
          "name": "index",
          "type": "uint256"
        }
      ],
      "name": "_isClaimed",
      "outputs": [
        {
          "internalType": "bool",
          "name": "",
          "type": "bool"
        }
      ],
      "stateMutability": "view",
      "type": "function"
    },
    {
      "inputs": [],
      "name": "merkleRoot",
      "outputs": [
        {
          "internalType": "bytes32",
          "name": "",
          "type": "bytes32"
        }
      ],
      "stateMutability": "view",
      "type": "function"
    },
    {
      "inputs": [
        {
          "internalType": "uint256",
          "name": "_index",
          "type": "uint256"
        },
        {
          "internalType": "uint256",
          "name": "_amount",
          "type": "uint256"
        },
        {
          "internalType": "bytes32[]",
          "name": "_proofs",
          "type": "bytes32[]"
        },
        {
          "internalType": "address",
          "name": "user",
          "type": "address"
        }
      ],
      "name": "withdraw",
      "outputs": [],
      "stateMutability": "view",
      "type": "function"
    }
  ],
  "bytecode": "0x60806040527f5880c9cfd7eee8136772d1e6374b064077fb776409747cdd23cd39302a04311060001b60005534801561003757600080fd5b50610743806100476000396000f3fe608060405234801561001057600080fd5b50600436106100415760003560e01c80632eb4a7ab146100465780635d07b3cf14610064578063f9168b1114610094575b600080fd5b61004e6100b0565b60405161005b91906102aa565b60405180910390f35b61007e60048036038101906100799190610305565b6100b6565b60405161008b919061034d565b60405180910390f35b6100ae60048036038101906100a9919061042b565b61011e565b005b60005481565b600080610100836100c79190610511565b90506000610100846100d99190610542565b90506000600160008054815260200190815260200160002060008481526020019081526020016000205490506000826001901b90508081831614945050505050919050565b6000858286604051602001610135939291906105dc565b60405160208183030381529060405280519060200120905061019b848480806020026020016040519081016040528093929190818152602001838360200280828437600081840152601f19601f82011690508083019250505050505050600054836101e2565b6101da576040517f08c379a00000000000000000000000000000000000000000000000000000000081526004016101d190610676565b60405180910390fd5b505050505050565b6000826101ef85846101f9565b1490509392505050565b60008082905060005b84518110156102445761022f8286838151811061022257610221610696565b5b602002602001015161024f565b9150808061023c906106c5565b915050610202565b508091505092915050565b600081831061026757610262828461027a565b610272565b610271838361027a565b5b905092915050565b600082600052816020526040600020905092915050565b6000819050919050565b6102a481610291565b82525050565b60006020820190506102bf600083018461029b565b92915050565b600080fd5b600080fd5b6000819050919050565b6102e2816102cf565b81146102ed57600080fd5b50565b6000813590506102ff816102d9565b92915050565b60006020828403121561031b5761031a6102c5565b5b6000610329848285016102f0565b91505092915050565b60008115159050919050565b61034781610332565b82525050565b6000602082019050610362600083018461033e565b92915050565b600080fd5b600080fd5b600080fd5b60008083601f84011261038d5761038c610368565b5b8235905067ffffffffffffffff8111156103aa576103a961036d565b5b6020830191508360208202830111156103c6576103c5610372565b5b9250929050565b600073ffffffffffffffffffffffffffffffffffffffff82169050919050565b60006103f8826103cd565b9050919050565b610408816103ed565b811461041357600080fd5b50565b600081359050610425816103ff565b92915050565b600080600080600060808688031215610447576104466102c5565b5b6000610455888289016102f0565b9550506020610466888289016102f0565b945050604086013567ffffffffffffffff811115610487576104866102ca565b5b61049388828901610377565b935093505060606104a688828901610416565b9150509295509295909350565b7f4e487b7100000000000000000000000000000000000000000000000000000000600052601260045260246000fd5b7f4e487b7100000000000000000000000000000000000000000000000000000000600052601160045260246000fd5b600061051c826102cf565b9150610527836102cf565b925082610537576105366104b3565b5b828204905092915050565b600061054d826102cf565b9150610558836102cf565b925082610568576105676104b3565b5b828206905092915050565b6000819050919050565b61058e610589826102cf565b610573565b82525050565b60008160601b9050919050565b60006105ac82610594565b9050919050565b60006105be826105a1565b9050919050565b6105d66105d1826103ed565b6105b3565b82525050565b60006105e8828661057d565b6020820191506105f882856105c5565b601482019150610608828461057d565b602082019150819050949350505050565b600082825260208201905092915050565b7f56616c69646174696f6e206661696c6564000000000000000000000000000000600082015250565b6000610660601183610619565b915061066b8261062a565b602082019050919050565b6000602082019050818103600083015261068f81610653565b9050919050565b7f4e487b7100000000000000000000000000000000000000000000000000000000600052603260045260246000fd5b60006106d0826102cf565b91507fffffffffffffffffffffffffffffffffffffffffffffffffffffffffffffffff8203610702576107016104e2565b5b60018201905091905056fea26469706673582212206596baa23dc129f322d8e403d1f460e34e6a6710b80fea838c1954879d22c1cb64736f6c63430008120033",
  "linkReferences": {},
  "deployedLinkReferences": {}
}