{
  "_format": "hh-sol-artifact-1",
  "contractName": "MerkleTree",
  "sourceName": "contracts/MerkleTree.sol",
  "abi": [
    {
      "inputs": [
        {
          "internalType": "bytes32[]",
          "name": "addresses",
          "type": "bytes32[]"
        }
      ],
      "stateMutability": "nonpayable",
      "type": "constructor"
    },
    {
      "inputs": [],
      "name": "TREE_HEIGHT",
      "outputs": [
        {
          "internalType": "uint256",
          "name": "",
          "type": "uint256"
        }
      ],
      "stateMutability": "view",
      "type": "function"
    },
    {
      "inputs": [
        {
          "internalType": "uint256",
          "name": "",
          "type": "uint256"
        }
      ],
      "name": "filledSubtrees",
      "outputs": [
        {
          "internalType": "bytes32",
          "name": "",
          "type": "bytes32"
        }
      ],
      "stateMutability": "view",
      "type": "function"
    },
    {
      "inputs": [
        {
          "internalType": "bytes32",
          "name": "leaf",
          "type": "bytes32"
        }
      ],
      "name": "getProof",
      "outputs": [
        {
          "internalType": "bytes32[]",
          "name": "",
          "type": "bytes32[]"
        }
      ],
      "stateMutability": "view",
      "type": "function"
    },
    {
      "inputs": [],
      "name": "root",
      "outputs": [
        {
          "internalType": "bytes32",
          "name": "",
          "type": "bytes32"
        }
      ],
      "stateMutability": "view",
      "type": "function"
    },
    {
      "inputs": [
        {
          "internalType": "uint256",
          "name": "",
          "type": "uint256"
        }
      ],
      "name": "zeros",
      "outputs": [
        {
          "internalType": "bytes32",
          "name": "",
          "type": "bytes32"
        }
      ],
      "stateMutability": "view",
      "type": "function"
    }
  ],
  "bytecode": "0x60806040523480156200001157600080fd5b5060405162001294380380620012948339818101604052810190620000379190620004ee565b60008151116200007e576040517f08c379a00000000000000000000000000000000000000000000000000000000081526004016200007590620005a0565b60405180910390fd5b6200008f816200010960201b60201c565b60288190555060005b81518110156200010157600160296000848481518110620000be57620000bd620005c2565b5b6020026020010151815260200190815260200160002060006101000a81548160ff0219169083151502179055508080620000f8906200062a565b91505062000098565b505062000832565b60008082511162000151576040517f08c379a00000000000000000000000000000000000000000000000000000000081526004016200014890620005a0565b60405180910390fd5b60008290506000835190505b600181111562000302576000805b82811015620002db578260018262000184919062000677565b101562000273576002848281518110620001a357620001a2620005c2565b5b602002602001015185600184620001bb919062000677565b81518110620001cf57620001ce620005c2565b5b6020026020010151604051602001620001ea929190620006d7565b60405160208183030381529060405260405162000208919062000780565b602060405180830381855afa15801562000226573d6000803e3d6000fd5b5050506040513d601f19601f820116820180604052508101906200024b919062000799565b848381518110620002615762000260620005c2565b5b602002602001018181525050620002b4565b838181518110620002895762000288620005c2565b5b6020026020010151848381518110620002a757620002a6620005c2565b5b6020026020010181815250505b8180620002c1906200062a565b925050600281620002d3919062000677565b90506200016b565b506002600183620002ed919062000677565b620002f99190620007fa565b9150506200015d565b81600081518110620003195762000318620005c2565b5b602002602001015192505050919050565b6000604051905090565b600080fd5b600080fd5b600080fd5b6000601f19601f8301169050919050565b7f4e487b7100000000000000000000000000000000000000000000000000000000600052604160045260246000fd5b6200038e8262000343565b810181811067ffffffffffffffff82111715620003b057620003af62000354565b5b80604052505050565b6000620003c56200032a565b9050620003d3828262000383565b919050565b600067ffffffffffffffff821115620003f657620003f562000354565b5b602082029050602081019050919050565b600080fd5b6000819050919050565b62000421816200040c565b81146200042d57600080fd5b50565b600081519050620004418162000416565b92915050565b60006200045e6200045884620003d8565b620003b9565b9050808382526020820190506020840283018581111562000484576200048362000407565b5b835b81811015620004b157806200049c888262000430565b84526020840193505060208101905062000486565b5050509392505050565b600082601f830112620004d357620004d26200033e565b5b8151620004e584826020860162000447565b91505092915050565b60006020828403121562000507576200050662000334565b5b600082015167ffffffffffffffff81111562000528576200052762000339565b5b6200053684828501620004bb565b91505092915050565b600082825260208201905092915050565b7f4e6f206164647265737365732070726f76696465640000000000000000000000600082015250565b6000620005886015836200053f565b9150620005958262000550565b602082019050919050565b60006020820190508181036000830152620005bb8162000579565b9050919050565b7f4e487b7100000000000000000000000000000000000000000000000000000000600052603260045260246000fd5b7f4e487b7100000000000000000000000000000000000000000000000000000000600052601160045260246000fd5b6000819050919050565b6000620006378262000620565b91507fffffffffffffffffffffffffffffffffffffffffffffffffffffffffffffffff82036200066c576200066b620005f1565b5b600182019050919050565b6000620006848262000620565b9150620006918362000620565b9250828201905080821115620006ac57620006ab620005f1565b5b92915050565b6000819050919050565b620006d1620006cb826200040c565b620006b2565b82525050565b6000620006e58285620006bc565b602082019150620006f78284620006bc565b6020820191508190509392505050565b600081519050919050565b600081905092915050565b60005b838110156200073d57808201518184015260208101905062000720565b60008484015250505050565b6000620007568262000707565b62000762818562000712565b9350620007748185602086016200071d565b80840191505092915050565b60006200078e828462000749565b915081905092915050565b600060208284031215620007b257620007b162000334565b5b6000620007c28482850162000430565b91505092915050565b7f4e487b7100000000000000000000000000000000000000000000000000000000600052601260045260246000fd5b6000620008078262000620565b9150620008148362000620565b925082620008275762000826620007cb565b5b828204905092915050565b610a5280620008426000396000f3fe608060405234801561001057600080fd5b50600436106100575760003560e01c80631b80bb3a1461005c578063436fd9681461008c578063e8295588146100aa578063ebf0c717146100da578063f178e47c146100f8575b600080fd5b61007660048036038101906100719190610504565b610128565b60405161008391906105ef565b60405180910390f35b61009461040d565b6040516100a1919061062a565b60405180910390f35b6100c460048036038101906100bf9190610671565b610412565b6040516100d191906106ad565b60405180910390f35b6100e261042d565b6040516100ef91906106ad565b60405180910390f35b610112600480360381019061010d9190610671565b610433565b60405161011f91906106ad565b60405180910390f35b60606029600083815260200190815260200160002060009054906101000a900460ff1661018a576040517f08c379a00000000000000000000000000000000000000000000000000000000081526004016101819061074b565b60405180910390fd5b6000601467ffffffffffffffff8111156101a7576101a661076b565b5b6040519080825280602002602001820160405280156101d55781602001602082028036833780820191505090505b5090506000600160146101e891906107c9565b67ffffffffffffffff8111156102015761020061076b565b5b60405190808252806020026020018201604052801561022f5781602001602082028036833780820191505090505b509050600080858360008151811061024a576102496107fd565b5b60200260200101818152505060005b6014811015610400576000600284610271919061085b565b03610325576102af84838151811061028c5761028b6107fd565b5b6020026020010151601483601481106102a8576102a76107fd565b5b015461044e565b846001846102bd91906107c9565b815181106102ce576102cd6107fd565b5b602002602001018181525050836001836102e891906107c9565b815181106102f9576102f86107fd565b5b6020026020010151858281518110610314576103136107fd565b5b6020026020010181815250506103d0565b61035e6014826014811061033c5761033b6107fd565b5b0154858481518110610351576103506107fd565b5b602002602001015161044e565b8460018461036c91906107c9565b8151811061037d5761037c6107fd565b5b6020026020010181815250508360018361039791906107c9565b815181106103a8576103a76107fd565b5b60200260200101518582815181106103c3576103c26107fd565b5b6020026020010181815250505b6002836103dd919061088c565b925081806103ea906108bd565b92505080806103f8906108bd565b915050610259565b5083945050505050919050565b601481565b6014816014811061042257600080fd5b016000915090505481565b60285481565b6000816014811061044357600080fd5b016000915090505481565b600060028383604051602001610465929190610926565b60405160208183030381529060405260405161048191906109c3565b602060405180830381855afa15801561049e573d6000803e3d6000fd5b5050506040513d601f19601f820116820180604052508101906104c191906109ef565b905092915050565b600080fd5b6000819050919050565b6104e1816104ce565b81146104ec57600080fd5b50565b6000813590506104fe816104d8565b92915050565b60006020828403121561051a576105196104c9565b5b6000610528848285016104ef565b91505092915050565b600081519050919050565b600082825260208201905092915050565b6000819050602082019050919050565b610566816104ce565b82525050565b6000610578838361055d565b60208301905092915050565b6000602082019050919050565b600061059c82610531565b6105a6818561053c565b93506105b18361054d565b8060005b838110156105e25781516105c9888261056c565b97506105d483610584565b9250506001810190506105b5565b5085935050505092915050565b600060208201905081810360008301526106098184610591565b905092915050565b6000819050919050565b61062481610611565b82525050565b600060208201905061063f600083018461061b565b92915050565b61064e81610611565b811461065957600080fd5b50565b60008135905061066b81610645565b92915050565b600060208284031215610687576106866104c9565b5b60006106958482850161065c565b91505092915050565b6106a7816104ce565b82525050565b60006020820190506106c2600083018461069e565b92915050565b600082825260208201905092915050565b7f41646472657373206e6f7420666f756e6420696e20746865204d65726b6c652060008201527f7472656500000000000000000000000000000000000000000000000000000000602082015250565b60006107356024836106c8565b9150610740826106d9565b604082019050919050565b6000602082019050818103600083015261076481610728565b9050919050565b7f4e487b7100000000000000000000000000000000000000000000000000000000600052604160045260246000fd5b7f4e487b7100000000000000000000000000000000000000000000000000000000600052601160045260246000fd5b60006107d482610611565b91506107df83610611565b92508282019050808211156107f7576107f661079a565b5b92915050565b7f4e487b7100000000000000000000000000000000000000000000000000000000600052603260045260246000fd5b7f4e487b7100000000000000000000000000000000000000000000000000000000600052601260045260246000fd5b600061086682610611565b915061087183610611565b9250826108815761088061082c565b5b828206905092915050565b600061089782610611565b91506108a283610611565b9250826108b2576108b161082c565b5b828204905092915050565b60006108c882610611565b91507fffffffffffffffffffffffffffffffffffffffffffffffffffffffffffffffff82036108fa576108f961079a565b5b600182019050919050565b6000819050919050565b61092061091b826104ce565b610905565b82525050565b6000610932828561090f565b602082019150610942828461090f565b6020820191508190509392505050565b600081519050919050565b600081905092915050565b60005b8381101561098657808201518184015260208101905061096b565b60008484015250505050565b600061099d82610952565b6109a7818561095d565b93506109b7818560208601610968565b80840191505092915050565b60006109cf8284610992565b915081905092915050565b6000815190506109e9816104d8565b92915050565b600060208284031215610a0557610a046104c9565b5b6000610a13848285016109da565b9150509291505056fea2646970667358221220386b3cf1aabf7431b6f0c74bf35bfe0e754aef6e3c8d7d6bb0e4c057b95cde5564736f6c63430008120033",
  "linkReferences": {},
  "deployedLinkReferences": {}
}