{
  "_format": "hh-sol-artifact-1",
  "contractName": "IntendantDao",
  "sourceName": "contracts/dao/intenddantDao.sol",
  "abi": [
    {
      "inputs": [
        {
          "internalType": "address",
          "name": "CEDaddr",
          "type": "address"
        }
      ],
      "stateMutability": "nonpayable",
      "type": "constructor"
    },
    {
      "inputs": [],
      "name": "getAllIntendant",
      "outputs": [
        {
          "internalType": "address[]",
          "name": "",
          "type": "address[]"
        }
      ],
      "stateMutability": "view",
      "type": "function"
    },
    {
      "inputs": [],
      "name": "getCED",
      "outputs": [
        {
          "internalType": "address",
          "name": "",
          "type": "address"
        }
      ],
      "stateMutability": "view",
      "type": "function"
    },
    {
      "inputs": [
        {
          "internalType": "address",
          "name": "ICBaddr",
          "type": "address"
        }
      ],
      "name": "isICB",
      "outputs": [
        {
          "internalType": "bool",
          "name": "",
          "type": "bool"
        }
      ],
      "stateMutability": "view",
      "type": "function"
    },
    {
      "inputs": [
        {
          "internalType": "address",
          "name": "TAXaddr",
          "type": "address"
        }
      ],
      "name": "isTAX",
      "outputs": [
        {
          "internalType": "bool",
          "name": "",
          "type": "bool"
        }
      ],
      "stateMutability": "view",
      "type": "function"
    },
    {
      "inputs": [
        {
          "internalType": "address",
          "name": "addr",
          "type": "address"
        }
      ],
      "name": "setICB",
      "outputs": [],
      "stateMutability": "nonpayable",
      "type": "function"
    },
    {
      "inputs": [
        {
          "internalType": "address",
          "name": "addr",
          "type": "address"
        }
      ],
      "name": "setTAX",
      "outputs": [],
      "stateMutability": "nonpayable",
      "type": "function"
    }
  ],
  "bytecode": "0x608060405234801561001057600080fd5b506040516107ea3803806107ea833981810160405281019061003291906100dc565b80600260006101000a81548173ffffffffffffffffffffffffffffffffffffffff021916908373ffffffffffffffffffffffffffffffffffffffff16021790555050610109565b600080fd5b600073ffffffffffffffffffffffffffffffffffffffff82169050919050565b60006100a98261007e565b9050919050565b6100b98161009e565b81146100c457600080fd5b50565b6000815190506100d6816100b0565b92915050565b6000602082840312156100f2576100f1610079565b5b6000610100848285016100c7565b91505092915050565b6106d2806101186000396000f3fe608060405234801561001057600080fd5b50600436106100625760003560e01c80633e00851e1461006757806361c259d614610085578063b8073bd6146100b5578063c3c9df15146100d1578063e1636a9614610101578063ff4a8d861461011d575b600080fd5b61006f61013b565b60405161007c919061050d565b60405180910390f35b61009f600480360381019061009a9190610559565b610165565b6040516100ac91906105a1565b60405180910390f35b6100cf60048036038101906100ca9190610559565b6101ba565b005b6100eb60048036038101906100e69190610559565b6102d1565b6040516100f891906105a1565b60405180910390f35b61011b60048036038101906101169190610559565b610327565b005b61012561043e565b604051610132919061067a565b60405180910390f35b6000600260009054906101000a900473ffffffffffffffffffffffffffffffffffffffff16905090565b60008060008373ffffffffffffffffffffffffffffffffffffffff1673ffffffffffffffffffffffffffffffffffffffff16815260200190815260200160002060009054906101000a900460ff169050919050565b600260009054906101000a900473ffffffffffffffffffffffffffffffffffffffff1673ffffffffffffffffffffffffffffffffffffffff163373ffffffffffffffffffffffffffffffffffffffff161461021457600080fd5b6003819080600181540180825580915050600190039060005260206000200160009091909190916101000a81548173ffffffffffffffffffffffffffffffffffffffff021916908373ffffffffffffffffffffffffffffffffffffffff16021790555060016000808373ffffffffffffffffffffffffffffffffffffffff1673ffffffffffffffffffffffffffffffffffffffff16815260200190815260200160002060006101000a81548160ff02191690831515021790555050565b6000600160008373ffffffffffffffffffffffffffffffffffffffff1673ffffffffffffffffffffffffffffffffffffffff16815260200190815260200160002060009054906101000a900460ff169050919050565b600260009054906101000a900473ffffffffffffffffffffffffffffffffffffffff1673ffffffffffffffffffffffffffffffffffffffff163373ffffffffffffffffffffffffffffffffffffffff161461038157600080fd5b6003819080600181540180825580915050600190039060005260206000200160009091909190916101000a81548173ffffffffffffffffffffffffffffffffffffffff021916908373ffffffffffffffffffffffffffffffffffffffff16021790555060018060008373ffffffffffffffffffffffffffffffffffffffff1673ffffffffffffffffffffffffffffffffffffffff16815260200190815260200160002060006101000a81548160ff02191690831515021790555050565b606060038054806020026020016040519081016040528092919081815260200182805480156104c257602002820191906000526020600020905b8160009054906101000a900473ffffffffffffffffffffffffffffffffffffffff1673ffffffffffffffffffffffffffffffffffffffff1681526020019060010190808311610478575b5050505050905090565b600073ffffffffffffffffffffffffffffffffffffffff82169050919050565b60006104f7826104cc565b9050919050565b610507816104ec565b82525050565b600060208201905061052260008301846104fe565b92915050565b600080fd5b610536816104ec565b811461054157600080fd5b50565b6000813590506105538161052d565b92915050565b60006020828403121561056f5761056e610528565b5b600061057d84828501610544565b91505092915050565b60008115159050919050565b61059b81610586565b82525050565b60006020820190506105b66000830184610592565b92915050565b600081519050919050565b600082825260208201905092915050565b6000819050602082019050919050565b6105f1816104ec565b82525050565b600061060383836105e8565b60208301905092915050565b6000602082019050919050565b6000610627826105bc565b61063181856105c7565b935061063c836105d8565b8060005b8381101561066d57815161065488826105f7565b975061065f8361060f565b925050600181019050610640565b5085935050505092915050565b60006020820190508181036000830152610694818461061c565b90509291505056fea26469706673582212201eb4cc69483c4ec6e61612e0251fdf1e3af33149194d6539b5155da0d79b7a0664736f6c63430008120033",
  "linkReferences": {},
  "deployedLinkReferences": {}
}