{
  "_format": "hh-sol-artifact-1",
  "contractName": "PUserDao",
  "sourceName": "contracts/dao/pUser.sol",
  "abi": [
    {
      "inputs": [
        {
          "internalType": "address payable",
          "name": "CtAddress",
          "type": "address"
        },
        {
          "internalType": "address",
          "name": "_oracle",
          "type": "address"
        }
      ],
      "stateMutability": "nonpayable",
      "type": "constructor"
    },
    {
      "inputs": [
        {
          "internalType": "address",
          "name": "user",
          "type": "address"
        }
      ],
      "name": "LetMembertoTrue",
      "outputs": [],
      "stateMutability": "nonpayable",
      "type": "function"
    },
    {
      "inputs": [
        {
          "internalType": "uint256",
          "name": "",
          "type": "uint256"
        }
      ],
      "name": "_members",
      "outputs": [
        {
          "internalType": "address",
          "name": "",
          "type": "address"
        }
      ],
      "stateMutability": "view",
      "type": "function"
    },
    {
      "inputs": [
        {
          "internalType": "address",
          "name": "addr",
          "type": "address"
        }
      ],
      "name": "addMem",
      "outputs": [],
      "stateMutability": "nonpayable",
      "type": "function"
    },
    {
      "inputs": [],
      "name": "claim",
      "outputs": [],
      "stateMutability": "nonpayable",
      "type": "function"
    },
    {
      "inputs": [],
      "name": "getAllMem",
      "outputs": [
        {
          "internalType": "address[]",
          "name": "",
          "type": "address[]"
        }
      ],
      "stateMutability": "view",
      "type": "function"
    },
    {
      "inputs": [],
      "name": "getQuota",
      "outputs": [
        {
          "internalType": "uint256",
          "name": "",
          "type": "uint256"
        }
      ],
      "stateMutability": "pure",
      "type": "function"
    },
    {
      "inputs": [
        {
          "internalType": "address",
          "name": "user",
          "type": "address"
        }
      ],
      "name": "initUser",
      "outputs": [],
      "stateMutability": "nonpayable",
      "type": "function"
    },
    {
      "inputs": [
        {
          "internalType": "address",
          "name": "user",
          "type": "address"
        }
      ],
      "name": "isClaimed",
      "outputs": [
        {
          "internalType": "bool",
          "name": "",
          "type": "bool"
        }
      ],
      "stateMutability": "view",
      "type": "function"
    },
    {
      "inputs": [
        {
          "internalType": "address",
          "name": "user",
          "type": "address"
        }
      ],
      "name": "isMember",
      "outputs": [
        {
          "internalType": "bool",
          "name": "",
          "type": "bool"
        }
      ],
      "stateMutability": "view",
      "type": "function"
    },
    {
      "inputs": [
        {
          "internalType": "address",
          "name": "",
          "type": "address"
        }
      ],
      "name": "members",
      "outputs": [
        {
          "internalType": "bool",
          "name": "",
          "type": "bool"
        }
      ],
      "stateMutability": "view",
      "type": "function"
    },
    {
      "inputs": [],
      "name": "oracleAddress",
      "outputs": [
        {
          "internalType": "address",
          "name": "",
          "type": "address"
        }
      ],
      "stateMutability": "view",
      "type": "function"
    },
    {
      "inputs": [],
      "name": "root",
      "outputs": [
        {
          "internalType": "bytes32",
          "name": "",
          "type": "bytes32"
        }
      ],
      "stateMutability": "view",
      "type": "function"
    }
  ],
  "bytecode": "0x60806040523480156200001157600080fd5b5060405162000dc138038062000dc1833981810160405281019062000037919062000170565b81600260006101000a81548173ffffffffffffffffffffffffffffffffffffffff021916908373ffffffffffffffffffffffffffffffffffffffff16021790555080600360006101000a81548173ffffffffffffffffffffffffffffffffffffffff021916908373ffffffffffffffffffffffffffffffffffffffff1602179055505050620001b7565b600080fd5b600073ffffffffffffffffffffffffffffffffffffffff82169050919050565b6000620000f382620000c6565b9050919050565b6200010581620000e6565b81146200011157600080fd5b50565b6000815190506200012581620000fa565b92915050565b60006200013882620000c6565b9050919050565b6200014a816200012b565b81146200015657600080fd5b50565b6000815190506200016a816200013f565b92915050565b600080604083850312156200018a5762000189620000c1565b5b60006200019a8582860162000114565b9250506020620001ad8582860162000159565b9150509250929050565b610bfa80620001c76000396000f3fe608060405234801561001057600080fd5b50600436106100b45760003560e01c80637355f245116100715780637355f2451461017b5780638cc08025146101975780639aebf279146101c7578063a230c524146101e3578063a89ae4ba14610213578063ebf0c71714610231576100b4565b806303216ec9146100b957806308ae4b0c146100d75780631df8ba771461010757806323a78eb5146101255780633cf87dfc146101415780634e71d92d14610171575b600080fd5b6100c161024f565b6040516100ce9190610924565b60405180910390f35b6100f160048036038101906100ec9190610977565b6102dd565b6040516100fe91906109bf565b60405180910390f35b61010f6102fd565b60405161011c91906109f3565b60405180910390f35b61013f600480360381019061013a9190610977565b610306565b005b61015b60048036038101906101569190610a3a565b610367565b6040516101689190610a76565b60405180910390f35b6101796103a6565b005b61019560048036038101906101909190610977565b6104c3565b005b6101b160048036038101906101ac9190610977565b610529565b6040516101be91906109bf565b60405180910390f35b6101e160048036038101906101dc9190610977565b61053b565b005b6101fd60048036038101906101f89190610977565b610595565b60405161020a91906109bf565b60405180910390f35b61021b6105ea565b6040516102289190610a76565b60405180910390f35b610239610610565b6040516102469190610aaa565b60405180910390f35b606060018054806020026020016040519081016040528092919081815260200182805480156102d357602002820191906000526020600020905b8160009054906101000a900473ffffffffffffffffffffffffffffffffffffffff1673ffffffffffffffffffffffffffffffffffffffff1681526020019060010190808311610289575b5050505050905090565b60006020528060005260406000206000915054906101000a900460ff1681565b60006001905090565b61030f81610616565b6000808373ffffffffffffffffffffffffffffffffffffffff1673ffffffffffffffffffffffffffffffffffffffff16815260200190815260200160002060006101000a81548160ff02191690831515021790555050565b6001818154811061037757600080fd5b906000526020600020016000915054906101000a900473ffffffffffffffffffffffffffffffffffffffff1681565b6000803373ffffffffffffffffffffffffffffffffffffffff1673ffffffffffffffffffffffffffffffffffffffff16815260200190815260200160002060009054906101000a900460ff16610431576040517f08c379a000000000000000000000000000000000000000000000000000000000815260040161042890610b22565b60405180910390fd5b600260009054906101000a900473ffffffffffffffffffffffffffffffffffffffff1673ffffffffffffffffffffffffffffffffffffffff1663158a49883360016040518363ffffffff1660e01b815260040161048f929190610b42565b600060405180830381600087803b1580156104a957600080fd5b505af11580156104bd573d6000803e3d6000fd5b50505050565b6001819080600181540180825580915050600190039060005260206000200160009091909190916101000a81548173ffffffffffffffffffffffffffffffffffffffff021916908373ffffffffffffffffffffffffffffffffffffffff16021790555050565b60006105348261078f565b9050919050565b60016000808373ffffffffffffffffffffffffffffffffffffffff1673ffffffffffffffffffffffffffffffffffffffff16815260200190815260200160002060006101000a81548160ff02191690831515021790555050565b60008060008373ffffffffffffffffffffffffffffffffffffffff1673ffffffffffffffffffffffffffffffffffffffff16815260200190815260200160002060009054906101000a900460ff169050919050565b600360009054906101000a900473ffffffffffffffffffffffffffffffffffffffff1681565b60045481565b600080600360009054906101000a900473ffffffffffffffffffffffffffffffffffffffff1690508073ffffffffffffffffffffffffffffffffffffffff1663d69b4ad5846040518263ffffffff1660e01b81526004016106779190610a76565b602060405180830381865afa158015610694573d6000803e3d6000fd5b505050506040513d601f19601f820116820180604052508101906106b89190610b97565b6000808573ffffffffffffffffffffffffffffffffffffffff1673ffffffffffffffffffffffffffffffffffffffff16815260200190815260200160002060006101000a81548160ff0219169083151502179055508073ffffffffffffffffffffffffffffffffffffffff1663d69b4ad5846040518263ffffffff1660e01b81526004016107469190610a76565b602060405180830381865afa158015610763573d6000803e3d6000fd5b505050506040513d601f19601f820116820180604052508101906107879190610b97565b915050919050565b6000600260009054906101000a900473ffffffffffffffffffffffffffffffffffffffff1673ffffffffffffffffffffffffffffffffffffffff16633e79e481836040518263ffffffff1660e01b81526004016107ec9190610a76565b602060405180830381865afa158015610809573d6000803e3d6000fd5b505050506040513d601f19601f8201168201806040525081019061082d9190610b97565b9050919050565b600081519050919050565b600082825260208201905092915050565b6000819050602082019050919050565b600073ffffffffffffffffffffffffffffffffffffffff82169050919050565b600061088b82610860565b9050919050565b61089b81610880565b82525050565b60006108ad8383610892565b60208301905092915050565b6000602082019050919050565b60006108d182610834565b6108db818561083f565b93506108e683610850565b8060005b838110156109175781516108fe88826108a1565b9750610909836108b9565b9250506001810190506108ea565b5085935050505092915050565b6000602082019050818103600083015261093e81846108c6565b905092915050565b600080fd5b61095481610880565b811461095f57600080fd5b50565b6000813590506109718161094b565b92915050565b60006020828403121561098d5761098c610946565b5b600061099b84828501610962565b91505092915050565b60008115159050919050565b6109b9816109a4565b82525050565b60006020820190506109d460008301846109b0565b92915050565b6000819050919050565b6109ed816109da565b82525050565b6000602082019050610a0860008301846109e4565b92915050565b610a17816109da565b8114610a2257600080fd5b50565b600081359050610a3481610a0e565b92915050565b600060208284031215610a5057610a4f610946565b5b6000610a5e84828501610a25565b91505092915050565b610a7081610880565b82525050565b6000602082019050610a8b6000830184610a67565b92915050565b6000819050919050565b610aa481610a91565b82525050565b6000602082019050610abf6000830184610a9b565b92915050565b600082825260208201905092915050565b7f41646472657373206973206e6f742061206d656d626572000000000000000000600082015250565b6000610b0c601783610ac5565b9150610b1782610ad6565b602082019050919050565b60006020820190508181036000830152610b3b81610aff565b9050919050565b6000604082019050610b576000830185610a67565b610b6460208301846109e4565b9392505050565b610b74816109a4565b8114610b7f57600080fd5b50565b600081519050610b9181610b6b565b92915050565b600060208284031215610bad57610bac610946565b5b6000610bbb84828501610b82565b9150509291505056fea2646970667358221220e3f5a8e85dafe31123a4a7a30050fb20a0a38736b10d1d2359e6b096e1ab2ff964736f6c63430008120033",
  "linkReferences": {},
  "deployedLinkReferences": {}
}