{
  "_format": "hh-sol-artifact-1",
  "contractName": "CEDDao",
  "sourceName": "contracts/dao/CEDDao.sol",
  "abi": [
    {
      "inputs": [
        {
          "internalType": "address",
          "name": "CEDmember",
          "type": "address"
        }
      ],
      "stateMutability": "nonpayable",
      "type": "constructor"
    },
    {
      "inputs": [
        {
          "internalType": "address",
          "name": "CEDAddress",
          "type": "address"
        }
      ],
      "name": "isMember",
      "outputs": [
        {
          "internalType": "bool",
          "name": "",
          "type": "bool"
        }
      ],
      "stateMutability": "view",
      "type": "function"
    }
  ],
  "bytecode": "0x608060405234801561001057600080fd5b506040516102df3803806102df833981810160405281019061003291906100f2565b60016000808373ffffffffffffffffffffffffffffffffffffffff1673ffffffffffffffffffffffffffffffffffffffff16815260200190815260200160002060006101000a81548160ff0219169083151502179055505061011f565b600080fd5b600073ffffffffffffffffffffffffffffffffffffffff82169050919050565b60006100bf82610094565b9050919050565b6100cf816100b4565b81146100da57600080fd5b50565b6000815190506100ec816100c6565b92915050565b6000602082840312156101085761010761008f565b5b6000610116848285016100dd565b91505092915050565b6101b18061012e6000396000f3fe608060405234801561001057600080fd5b506004361061002b5760003560e01c8063a230c52414610030575b600080fd5b61004a60048036038101906100459190610118565b610060565b6040516100579190610160565b60405180910390f35b60008060008373ffffffffffffffffffffffffffffffffffffffff1673ffffffffffffffffffffffffffffffffffffffff16815260200190815260200160002060009054906101000a900460ff169050919050565b600080fd5b600073ffffffffffffffffffffffffffffffffffffffff82169050919050565b60006100e5826100ba565b9050919050565b6100f5816100da565b811461010057600080fd5b50565b600081359050610112816100ec565b92915050565b60006020828403121561012e5761012d6100b5565b5b600061013c84828501610103565b91505092915050565b60008115159050919050565b61015a81610145565b82525050565b60006020820190506101756000830184610151565b9291505056fea2646970667358221220939833220a4d2bbac600f5dbf0fd8382ce1c1609967e9ab403a5ec5725f4374564736f6c63430008120033",
  "linkReferences": {},
  "deployedLinkReferences": {}
}