{
  "_format": "hh-sol-artifact-1",
  "contractName": "AMM",
  "sourceName": "contracts/transcation/CTAMM.sol",
  "abi": [
    {
      "inputs": [
        {
          "internalType": "address",
          "name": "_tokenA",
          "type": "address"
        },
        {
          "internalType": "address payable",
          "name": "_tokenB",
          "type": "address"
        }
      ],
      "stateMutability": "nonpayable",
      "type": "constructor"
    },
    {
      "anonymous": false,
      "inputs": [
        {
          "indexed": true,
          "internalType": "address",
          "name": "owner",
          "type": "address"
        },
        {
          "indexed": true,
          "internalType": "address",
          "name": "spender",
          "type": "address"
        },
        {
          "indexed": false,
          "internalType": "uint256",
          "name": "value",
          "type": "uint256"
        }
      ],
      "name": "Approval",
      "type": "event"
    },
    {
      "anonymous": false,
      "inputs": [
        {
          "indexed": true,
          "internalType": "address",
          "name": "from",
          "type": "address"
        },
        {
          "indexed": true,
          "internalType": "address",
          "name": "to",
          "type": "address"
        },
        {
          "indexed": false,
          "internalType": "uint256",
          "name": "value",
          "type": "uint256"
        }
      ],
      "name": "Transfer",
      "type": "event"
    },
    {
      "inputs": [
        {
          "internalType": "uint256",
          "name": "amountA",
          "type": "uint256"
        },
        {
          "internalType": "uint256",
          "name": "amountB",
          "type": "uint256"
        }
      ],
      "name": "addLiquidity",
      "outputs": [],
      "stateMutability": "payable",
      "type": "function"
    },
    {
      "inputs": [
        {
          "internalType": "address",
          "name": "owner",
          "type": "address"
        },
        {
          "internalType": "address",
          "name": "spender",
          "type": "address"
        }
      ],
      "name": "allowance",
      "outputs": [
        {
          "internalType": "uint256",
          "name": "",
          "type": "uint256"
        }
      ],
      "stateMutability": "view",
      "type": "function"
    },
    {
      "inputs": [
        {
          "internalType": "address",
          "name": "spender",
          "type": "address"
        },
        {
          "internalType": "uint256",
          "name": "amount",
          "type": "uint256"
        }
      ],
      "name": "approve",
      "outputs": [
        {
          "internalType": "bool",
          "name": "",
          "type": "bool"
        }
      ],
      "stateMutability": "nonpayable",
      "type": "function"
    },
    {
      "inputs": [
        {
          "internalType": "address",
          "name": "account",
          "type": "address"
        }
      ],
      "name": "balanceOf",
      "outputs": [
        {
          "internalType": "uint256",
          "name": "",
          "type": "uint256"
        }
      ],
      "stateMutability": "view",
      "type": "function"
    },
    {
      "inputs": [],
      "name": "decimals",
      "outputs": [
        {
          "internalType": "uint8",
          "name": "",
          "type": "uint8"
        }
      ],
      "stateMutability": "view",
      "type": "function"
    },
    {
      "inputs": [
        {
          "internalType": "address",
          "name": "spender",
          "type": "address"
        },
        {
          "internalType": "uint256",
          "name": "subtractedValue",
          "type": "uint256"
        }
      ],
      "name": "decreaseAllowance",
      "outputs": [
        {
          "internalType": "bool",
          "name": "",
          "type": "bool"
        }
      ],
      "stateMutability": "nonpayable",
      "type": "function"
    },
    {
      "inputs": [
        {
          "internalType": "uint256",
          "name": "amountOut",
          "type": "uint256"
        },
        {
          "internalType": "address",
          "name": "tokenIn",
          "type": "address"
        },
        {
          "internalType": "address",
          "name": "tokenOut",
          "type": "address"
        }
      ],
      "name": "getAmountIn",
      "outputs": [
        {
          "internalType": "uint256",
          "name": "",
          "type": "uint256"
        }
      ],
      "stateMutability": "view",
      "type": "function"
    },
    {
      "inputs": [
        {
          "internalType": "uint256",
          "name": "amountIn",
          "type": "uint256"
        },
        {
          "internalType": "address",
          "name": "tokenIn",
          "type": "address"
        },
        {
          "internalType": "address",
          "name": "tokenOut",
          "type": "address"
        }
      ],
      "name": "getAmountOut",
      "outputs": [
        {
          "internalType": "uint256",
          "name": "",
          "type": "uint256"
        }
      ],
      "stateMutability": "view",
      "type": "function"
    },
    {
      "inputs": [],
      "name": "getEthBalance",
      "outputs": [
        {
          "internalType": "uint256",
          "name": "",
          "type": "uint256"
        }
      ],
      "stateMutability": "view",
      "type": "function"
    },
    {
      "inputs": [],
      "name": "getReserves",
      "outputs": [
        {
          "internalType": "uint256",
          "name": "_reserve0",
          "type": "uint256"
        },
        {
          "internalType": "uint256",
          "name": "_reserve1",
          "type": "uint256"
        }
      ],
      "stateMutability": "view",
      "type": "function"
    },
    {
      "inputs": [
        {
          "internalType": "address",
          "name": "spender",
          "type": "address"
        },
        {
          "internalType": "uint256",
          "name": "addedValue",
          "type": "uint256"
        }
      ],
      "name": "increaseAllowance",
      "outputs": [
        {
          "internalType": "bool",
          "name": "",
          "type": "bool"
        }
      ],
      "stateMutability": "nonpayable",
      "type": "function"
    },
    {
      "inputs": [],
      "name": "name",
      "outputs": [
        {
          "internalType": "string",
          "name": "",
          "type": "string"
        }
      ],
      "stateMutability": "view",
      "type": "function"
    },
    {
      "inputs": [],
      "name": "removeLiquidity",
      "outputs": [
        {
          "internalType": "uint256",
          "name": "amount0",
          "type": "uint256"
        },
        {
          "internalType": "uint256",
          "name": "amount1",
          "type": "uint256"
        }
      ],
      "stateMutability": "nonpayable",
      "type": "function"
    },
    {
      "inputs": [
        {
          "internalType": "uint256",
          "name": "amountIn",
          "type": "uint256"
        },
        {
          "internalType": "uint256",
          "name": "amountOutMin",
          "type": "uint256"
        },
        {
          "internalType": "address",
          "name": "tokenIn",
          "type": "address"
        },
        {
          "internalType": "address",
          "name": "tokenOut",
          "type": "address"
        }
      ],
      "name": "swap",
      "outputs": [],
      "stateMutability": "payable",
      "type": "function"
    },
    {
      "inputs": [],
      "name": "symbol",
      "outputs": [
        {
          "internalType": "string",
          "name": "",
          "type": "string"
        }
      ],
      "stateMutability": "view",
      "type": "function"
    },
    {
      "inputs": [],
      "name": "tokenA",
      "outputs": [
        {
          "internalType": "address",
          "name": "",
          "type": "address"
        }
      ],
      "stateMutability": "view",
      "type": "function"
    },
    {
      "inputs": [],
      "name": "tokenB",
      "outputs": [
        {
          "internalType": "address payable",
          "name": "",
          "type": "address"
        }
      ],
      "stateMutability": "view",
      "type": "function"
    },
    {
      "inputs": [],
      "name": "totalSupply",
      "outputs": [
        {
          "internalType": "uint256",
          "name": "",
          "type": "uint256"
        }
      ],
      "stateMutability": "view",
      "type": "function"
    },
    {
      "inputs": [
        {
          "internalType": "address",
          "name": "to",
          "type": "address"
        },
        {
          "internalType": "uint256",
          "name": "amount",
          "type": "uint256"
        }
      ],
      "name": "transfer",
      "outputs": [
        {
          "internalType": "bool",
          "name": "",
          "type": "bool"
        }
      ],
      "stateMutability": "nonpayable",
      "type": "function"
    },
    {
      "inputs": [
        {
          "internalType": "address",
          "name": "from",
          "type": "address"
        },
        {
          "internalType": "address",
          "name": "to",
          "type": "address"
        },
        {
          "internalType": "uint256",
          "name": "amount",
          "type": "uint256"
        }
      ],
      "name": "transferFrom",
      "outputs": [
        {
          "internalType": "bool",
          "name": "",
          "type": "bool"
        }
      ],
      "stateMutability": "nonpayable",
      "type": "function"
    },
    {
      "stateMutability": "payable",
      "type": "receive"
    }
  ],
  "bytecode": "0x60806040523480156200001157600080fd5b5060405162003ec738038062003ec7833981810160405281019062000037919062000202565b6040518060400160405280600281526020017f4c500000000000000000000000000000000000000000000000000000000000008152506040518060400160405280600281526020017f4c500000000000000000000000000000000000000000000000000000000000008152508160039081620000b49190620004c3565b508060049081620000c69190620004c3565b50505081600560006101000a81548173ffffffffffffffffffffffffffffffffffffffff021916908373ffffffffffffffffffffffffffffffffffffffff16021790555080600660006101000a81548173ffffffffffffffffffffffffffffffffffffffff021916908373ffffffffffffffffffffffffffffffffffffffff1602179055505050620005aa565b600080fd5b600073ffffffffffffffffffffffffffffffffffffffff82169050919050565b6000620001858262000158565b9050919050565b620001978162000178565b8114620001a357600080fd5b50565b600081519050620001b7816200018c565b92915050565b6000620001ca8262000158565b9050919050565b620001dc81620001bd565b8114620001e857600080fd5b50565b600081519050620001fc81620001d1565b92915050565b600080604083850312156200021c576200021b62000153565b5b60006200022c85828601620001a6565b92505060206200023f85828601620001eb565b9150509250929050565b600081519050919050565b7f4e487b7100000000000000000000000000000000000000000000000000000000600052604160045260246000fd5b7f4e487b7100000000000000000000000000000000000000000000000000000000600052602260045260246000fd5b60006002820490506001821680620002cb57607f821691505b602082108103620002e157620002e062000283565b5b50919050565b60008190508160005260206000209050919050565b60006020601f8301049050919050565b600082821b905092915050565b6000600883026200034b7fffffffffffffffffffffffffffffffffffffffffffffffffffffffffffffffff826200030c565b6200035786836200030c565b95508019841693508086168417925050509392505050565b6000819050919050565b6000819050919050565b6000620003a46200039e62000398846200036f565b62000379565b6200036f565b9050919050565b6000819050919050565b620003c08362000383565b620003d8620003cf82620003ab565b84845462000319565b825550505050565b600090565b620003ef620003e0565b620003fc818484620003b5565b505050565b5b81811015620004245762000418600082620003e5565b60018101905062000402565b5050565b601f82111562000473576200043d81620002e7565b6200044884620002fc565b8101602085101562000458578190505b620004706200046785620002fc565b83018262000401565b50505b505050565b600082821c905092915050565b6000620004986000198460080262000478565b1980831691505092915050565b6000620004b3838362000485565b9150826002028217905092915050565b620004ce8262000249565b67ffffffffffffffff811115620004ea57620004e962000254565b5b620004f68254620002b2565b6200050382828562000428565b600060209050601f8311600181146200053b576000841562000526578287015190505b620005328582620004a5565b865550620005a2565b601f1984166200054b86620002e7565b60005b8281101562000575578489015182556001820191506020850194506020810190506200054e565b8683101562000595578489015162000591601f89168262000485565b8355505b6001600288020188555050505b505050505050565b61390d80620005ba6000396000f3fe6080604052600436106101235760003560e01c80635f64b55b116100a057806395d89b411161006457806395d89b41146104135780639cd441da1461043e578063a457c2d71461045a578063a9059cbb14610497578063dd62ed3e146104d45761012a565b80635f64b55b1461033857806367b9a2861461036357806370a082311461038f57806370ed0ada146103cc57806393ae8809146103f75761012a565b806318160ddd116100e757806318160ddd1461022b57806323b872dd14610256578063313ce5671461029357806339509351146102be5780635e1e6325146102fb5761012a565b806306fdde031461012f5780630902f1ac1461015a578063095ea7b3146101865780630a9a2b72146101c35780630fc63d10146102005761012a565b3661012a57005b600080fd5b34801561013b57600080fd5b50610144610511565b6040516101519190612712565b60405180910390f35b34801561016657600080fd5b5061016f6105a3565b60405161017d92919061274d565b60405180910390f35b34801561019257600080fd5b506101ad60048036038101906101a89190612805565b6105b4565b6040516101ba9190612860565b60405180910390f35b3480156101cf57600080fd5b506101ea60048036038101906101e5919061287b565b6105d7565b6040516101f791906128ce565b60405180910390f35b34801561020c57600080fd5b50610215610893565b60405161022291906128f8565b60405180910390f35b34801561023757600080fd5b506102406108b9565b60405161024d91906128ce565b60405180910390f35b34801561026257600080fd5b5061027d60048036038101906102789190612913565b6108c3565b60405161028a9190612860565b60405180910390f35b34801561029f57600080fd5b506102a86108f2565b6040516102b59190612982565b60405180910390f35b3480156102ca57600080fd5b506102e560048036038101906102e09190612805565b6108fb565b6040516102f29190612860565b60405180910390f35b34801561030757600080fd5b50610322600480360381019061031d919061287b565b610932565b60405161032f91906128ce565b60405180910390f35b34801561034457600080fd5b5061034d610bf6565b60405161035a91906129be565b60405180910390f35b34801561036f57600080fd5b50610378610c1c565b60405161038692919061274d565b60405180910390f35b34801561039b57600080fd5b506103b660048036038101906103b191906129d9565b610f25565b6040516103c391906128ce565b60405180910390f35b3480156103d857600080fd5b506103e1610f6d565b6040516103ee91906128ce565b60405180910390f35b610411600480360381019061040c9190612a06565b610f75565b005b34801561041f57600080fd5b506104286117e1565b6040516104359190612712565b60405180910390f35b61045860048036038101906104539190612a6d565b611873565b005b34801561046657600080fd5b50610481600480360381019061047c9190612805565b611c08565b60405161048e9190612860565b60405180910390f35b3480156104a357600080fd5b506104be60048036038101906104b99190612805565b611c7f565b6040516104cb9190612860565b60405180910390f35b3480156104e057600080fd5b506104fb60048036038101906104f69190612aad565b611ca2565b60405161050891906128ce565b60405180910390f35b60606003805461052090612b1c565b80601f016020809104026020016040519081016040528092919081815260200182805461054c90612b1c565b80156105995780601f1061056e57610100808354040283529160200191610599565b820191906000526020600020905b81548152906001019060200180831161057c57829003601f168201915b5050505050905090565b600080600754915060085490509091565b6000806105bf611d29565b90506105cc818585611d31565b600191505092915050565b600080841161061b576040517f08c379a000000000000000000000000000000000000000000000000000000000815260040161061290612b99565b60405180910390fd5b6000806000600560009054906101000a900473ffffffffffffffffffffffffffffffffffffffff1673ffffffffffffffffffffffffffffffffffffffff168673ffffffffffffffffffffffffffffffffffffffff160361071457600660009054906101000a900473ffffffffffffffffffffffffffffffffffffffff1673ffffffffffffffffffffffffffffffffffffffff168573ffffffffffffffffffffffffffffffffffffffff1614610705576040517f08c379a00000000000000000000000000000000000000000000000000000000081526004016106fc90612c05565b60405180910390fd5b60075491506008549050610822565b600660009054906101000a900473ffffffffffffffffffffffffffffffffffffffff1673ffffffffffffffffffffffffffffffffffffffff168673ffffffffffffffffffffffffffffffffffffffff16036107e6573073ffffffffffffffffffffffffffffffffffffffff168573ffffffffffffffffffffffffffffffffffffffff16146107d7576040517f08c379a00000000000000000000000000000000000000000000000000000000081526004016107ce90612c05565b60405180910390fd5b60085491506007549050610821565b6040517f08c379a000000000000000000000000000000000000000000000000000000000815260040161081890612c71565b60405180910390fd5b5b60006108396103e889611efa90919063ffffffff16565b836108449190612cc0565b905060006108686103e88a8561085a9190612d02565b611efa90919063ffffffff16565b9050600181836108789190612d65565b6108829190612d96565b945084955050505050509392505050565b600560009054906101000a900473ffffffffffffffffffffffffffffffffffffffff1681565b6000600254905090565b6000806108ce611d29565b90506108db858285611f67565b6108e6858585611ff3565b60019150509392505050565b60006012905090565b600080610906611d29565b90506109278185856109188589611ca2565b6109229190612d96565b611d31565b600191505092915050565b6000808411610976576040517f08c379a000000000000000000000000000000000000000000000000000000000815260040161096d90612b99565b60405180910390fd5b6000806000600560009054906101000a900473ffffffffffffffffffffffffffffffffffffffff1673ffffffffffffffffffffffffffffffffffffffff168673ffffffffffffffffffffffffffffffffffffffff1603610a6f57600660009054906101000a900473ffffffffffffffffffffffffffffffffffffffff1673ffffffffffffffffffffffffffffffffffffffff168573ffffffffffffffffffffffffffffffffffffffff1614610a60576040517f08c379a0000000000000000000000000000000000000000000000000000000008152600401610a5790612c05565b60405180910390fd5b60075491506008549050610b9f565b600660009054906101000a900473ffffffffffffffffffffffffffffffffffffffff1673ffffffffffffffffffffffffffffffffffffffff168673ffffffffffffffffffffffffffffffffffffffff1603610b6357600560009054906101000a900473ffffffffffffffffffffffffffffffffffffffff1673ffffffffffffffffffffffffffffffffffffffff168573ffffffffffffffffffffffffffffffffffffffff1614610b54576040517f08c379a0000000000000000000000000000000000000000000000000000000008152600401610b4b90612c05565b60405180910390fd5b60085491506007549050610b9e565b6040517f08c379a0000000000000000000000000000000000000000000000000000000008152600401610b9590612c71565b60405180910390fd5b5b60006103e88289610bb09190612cc0565b610bba9190612cc0565b905060008884610bca9190612d96565b6103e8610bd79190612cc0565b90508082610be59190612d65565b945084955050505050509392505050565b600660009054906101000a900473ffffffffffffffffffffffffffffffffffffffff1681565b6000806000600560009054906101000a900473ffffffffffffffffffffffffffffffffffffffff16905060008173ffffffffffffffffffffffffffffffffffffffff166370a08231306040518263ffffffff1660e01b8152600401610c8191906128f8565b602060405180830381865afa158015610c9e573d6000803e3d6000fd5b505050506040513d601f19601f82011682018060405250810190610cc29190612ddf565b90506000600660009054906101000a900473ffffffffffffffffffffffffffffffffffffffff1673ffffffffffffffffffffffffffffffffffffffff166370a08231306040518263ffffffff1660e01b8152600401610d2191906128f8565b602060405180830381865afa158015610d3e573d6000803e3d6000fd5b505050506040513d601f19601f82011682018060405250810190610d629190612ddf565b90506000610d6f33610f25565b90506000610d7b6108b9565b905080610d918584611efa90919063ffffffff16565b610d9b9190612d65565b965080610db18484611efa90919063ffffffff16565b610dbb9190612d65565b9550600087118015610dcd5750600086115b610e0c576040517f08c379a0000000000000000000000000000000000000000000000000000000008152600401610e0390612e7e565b60405180910390fd5b610e163383612269565b8660076000828254610e289190612d02565b925050819055508560086000828254610e419190612d02565b92505081905550600660009054906101000a900473ffffffffffffffffffffffffffffffffffffffff1673ffffffffffffffffffffffffffffffffffffffff16632e1a7d4d876040518263ffffffff1660e01b8152600401610ea391906128ce565b600060405180830381600087803b158015610ebd57600080fd5b505af1158015610ed1573d6000803e3d6000fd5b505050503373ffffffffffffffffffffffffffffffffffffffff166108fc879081150290604051600060405180830381858888f19350505050158015610f1b573d6000803e3d6000fd5b5050505050509091565b60008060008373ffffffffffffffffffffffffffffffffffffffff1673ffffffffffffffffffffffffffffffffffffffff168152602001908152602001600020549050919050565b600047905090565b60008411610fb8576040517f08c379a0000000000000000000000000000000000000000000000000000000008152600401610faf90612b99565b60405180910390fd5b60008311610ffb576040517f08c379a0000000000000000000000000000000000000000000000000000000008152600401610ff290612eea565b60405180910390fd5b600560009054906101000a900473ffffffffffffffffffffffffffffffffffffffff1673ffffffffffffffffffffffffffffffffffffffff168273ffffffffffffffffffffffffffffffffffffffff160361144257600660009054906101000a900473ffffffffffffffffffffffffffffffffffffffff1673ffffffffffffffffffffffffffffffffffffffff168173ffffffffffffffffffffffffffffffffffffffff16146110e0576040517f08c379a00000000000000000000000000000000000000000000000000000000081526004016110d790612c05565b60405180910390fd5b826008541015611125576040517f08c379a000000000000000000000000000000000000000000000000000000000815260040161111c90612f56565b60405180910390fd5b83600560009054906101000a900473ffffffffffffffffffffffffffffffffffffffff1673ffffffffffffffffffffffffffffffffffffffff166370a08231336040518263ffffffff1660e01b815260040161118191906128f8565b602060405180830381865afa15801561119e573d6000803e3d6000fd5b505050506040513d601f19601f820116820180604052508101906111c29190612ddf565b1015611203576040517f08c379a00000000000000000000000000000000000000000000000000000000081526004016111fa90612fc2565b60405180910390fd5b6000611210858484610932565b905083811015611255576040517f08c379a000000000000000000000000000000000000000000000000000000000815260040161124c9061302e565b60405180910390fd5b84600760008282546112679190612d96565b9250508190555080600860008282546112809190612d02565b92505081905550600560009054906101000a900473ffffffffffffffffffffffffffffffffffffffff1673ffffffffffffffffffffffffffffffffffffffff166323b872dd3330886040518463ffffffff1660e01b81526004016112e69392919061304e565b6020604051808303816000875af1158015611305573d6000803e3d6000fd5b505050506040513d601f19601f8201168201806040525081019061132991906130b1565b611368576040517f08c379a000000000000000000000000000000000000000000000000000000000815260040161135f9061312a565b60405180910390fd5b600660009054906101000a900473ffffffffffffffffffffffffffffffffffffffff1673ffffffffffffffffffffffffffffffffffffffff16632e1a7d4d826040518263ffffffff1660e01b81526004016113c391906128ce565b600060405180830381600087803b1580156113dd57600080fd5b505af11580156113f1573d6000803e3d6000fd5b505050503373ffffffffffffffffffffffffffffffffffffffff166108fc829081150290604051600060405180830381858888f1935050505015801561143b573d6000803e3d6000fd5b50506117db565b600660009054906101000a900473ffffffffffffffffffffffffffffffffffffffff1673ffffffffffffffffffffffffffffffffffffffff168273ffffffffffffffffffffffffffffffffffffffff160361179f57600560009054906101000a900473ffffffffffffffffffffffffffffffffffffffff1673ffffffffffffffffffffffffffffffffffffffff168173ffffffffffffffffffffffffffffffffffffffff1614611527576040517f08c379a000000000000000000000000000000000000000000000000000000000815260040161151e90612c05565b60405180910390fd5b82600754101561156c576040517f08c379a000000000000000000000000000000000000000000000000000000000815260040161156390612f56565b60405180910390fd5b6000611579858484610932565b9050838110156115be576040517f08c379a00000000000000000000000000000000000000000000000000000000081526004016115b59061302e565b60405180910390fd5b3073ffffffffffffffffffffffffffffffffffffffff166108fc869081150290604051600060405180830381858888f19350505050158015611604573d6000803e3d6000fd5b50600660009054906101000a900473ffffffffffffffffffffffffffffffffffffffff1673ffffffffffffffffffffffffffffffffffffffff1663d0e30db0866040518263ffffffff1660e01b81526004016000604051808303818588803b15801561166f57600080fd5b505af1158015611683573d6000803e3d6000fd5b5050505050806007600082825461169a9190612d02565b9250508190555084600860008282546116b39190612d96565b92505081905550600560009054906101000a900473ffffffffffffffffffffffffffffffffffffffff1673ffffffffffffffffffffffffffffffffffffffff1663a9059cbb33836040518363ffffffff1660e01b815260040161171792919061314a565b6020604051808303816000875af1158015611736573d6000803e3d6000fd5b505050506040513d601f19601f8201168201806040525081019061175a91906130b1565b611799576040517f08c379a00000000000000000000000000000000000000000000000000000000081526004016117909061312a565b60405180910390fd5b506117da565b6040517f08c379a00000000000000000000000000000000000000000000000000000000081526004016117d190612c71565b60405180910390fd5b5b50505050565b6060600480546117f090612b1c565b80601f016020809104026020016040519081016040528092919081815260200182805461181c90612b1c565b80156118695780601f1061183e57610100808354040283529160200191611869565b820191906000526020600020905b81548152906001019060200180831161184c57829003601f168201915b5050505050905090565b3073ffffffffffffffffffffffffffffffffffffffff166108fc829081150290604051600060405180830381858888f193505050501580156118b9573d6000803e3d6000fd5b5060008210156118fe576040517f08c379a00000000000000000000000000000000000000000000000000000000081526004016118f5906131e5565b60405180910390fd5b600560009054906101000a900473ffffffffffffffffffffffffffffffffffffffff1673ffffffffffffffffffffffffffffffffffffffff166323b872dd3330856040518463ffffffff1660e01b815260040161195d9392919061304e565b6020604051808303816000875af115801561197c573d6000803e3d6000fd5b505050506040513d601f19601f820116820180604052508101906119a091906130b1565b506000806119ac6105a3565b915091506000600560009054906101000a900473ffffffffffffffffffffffffffffffffffffffff1673ffffffffffffffffffffffffffffffffffffffff166370a08231306040518263ffffffff1660e01b8152600401611a0d91906128f8565b602060405180830381865afa158015611a2a573d6000803e3d6000fd5b505050506040513d601f19601f82011682018060405250810190611a4e9190612ddf565b905060004790506000611a6a858461243690919063ffffffff16565b90506000611a81858461243690919063ffffffff16565b90508660086000828254611a959190612d96565b925050819055508760076000828254611aae9190612d96565b925050819055506000611abf6108b9565b90506000808203611ae557611ade8385611ad99190612cc0565b61248f565b9050611b2c565b611b2988611afc8487611efa90919063ffffffff16565b611b069190612d65565b88611b1a8587611efa90919063ffffffff16565b611b249190612d65565b612509565b90505b60008111611b6f576040517f08c379a0000000000000000000000000000000000000000000000000000000008152600401611b6690613277565b60405180910390fd5b611b793382612522565b600660009054906101000a900473ffffffffffffffffffffffffffffffffffffffff1673ffffffffffffffffffffffffffffffffffffffff1663d0e30db08a6040518263ffffffff1660e01b81526004016000604051808303818588803b158015611be357600080fd5b505af1158015611bf7573d6000803e3d6000fd5b505050505050505050505050505050565b600080611c13611d29565b90506000611c218286611ca2565b905083811015611c66576040517f08c379a0000000000000000000000000000000000000000000000000000000008152600401611c5d90613309565b60405180910390fd5b611c738286868403611d31565b60019250505092915050565b600080611c8a611d29565b9050611c97818585611ff3565b600191505092915050565b6000600160008473ffffffffffffffffffffffffffffffffffffffff1673ffffffffffffffffffffffffffffffffffffffff16815260200190815260200160002060008373ffffffffffffffffffffffffffffffffffffffff1673ffffffffffffffffffffffffffffffffffffffff16815260200190815260200160002054905092915050565b600033905090565b600073ffffffffffffffffffffffffffffffffffffffff168373ffffffffffffffffffffffffffffffffffffffff1603611da0576040517f08c379a0000000000000000000000000000000000000000000000000000000008152600401611d979061339b565b60405180910390fd5b600073ffffffffffffffffffffffffffffffffffffffff168273ffffffffffffffffffffffffffffffffffffffff1603611e0f576040517f08c379a0000000000000000000000000000000000000000000000000000000008152600401611e069061342d565b60405180910390fd5b80600160008573ffffffffffffffffffffffffffffffffffffffff1673ffffffffffffffffffffffffffffffffffffffff16815260200190815260200160002060008473ffffffffffffffffffffffffffffffffffffffff1673ffffffffffffffffffffffffffffffffffffffff168152602001908152602001600020819055508173ffffffffffffffffffffffffffffffffffffffff168373ffffffffffffffffffffffffffffffffffffffff167f8c5be1e5ebec7d5bd14f71427d1e84f3dd0314c0f7b2291e5b200ac8c7c3b92583604051611eed91906128ce565b60405180910390a3505050565b600080821480611f22575082828385611f139190612cc0565b925082611f209190612d65565b145b611f61576040517f08c379a0000000000000000000000000000000000000000000000000000000008152600401611f5890613499565b60405180910390fd5b92915050565b6000611f738484611ca2565b90507fffffffffffffffffffffffffffffffffffffffffffffffffffffffffffffffff8114611fed5781811015611fdf576040517f08c379a0000000000000000000000000000000000000000000000000000000008152600401611fd690613505565b60405180910390fd5b611fec8484848403611d31565b5b50505050565b600073ffffffffffffffffffffffffffffffffffffffff168373ffffffffffffffffffffffffffffffffffffffff1603612062576040517f08c379a000000000000000000000000000000000000000000000000000000000815260040161205990613597565b60405180910390fd5b600073ffffffffffffffffffffffffffffffffffffffff168273ffffffffffffffffffffffffffffffffffffffff16036120d1576040517f08c379a00000000000000000000000000000000000000000000000000000000081526004016120c890613629565b60405180910390fd5b6120dc838383612678565b60008060008573ffffffffffffffffffffffffffffffffffffffff1673ffffffffffffffffffffffffffffffffffffffff16815260200190815260200160002054905081811015612162576040517f08c379a0000000000000000000000000000000000000000000000000000000008152600401612159906136bb565b60405180910390fd5b8181036000808673ffffffffffffffffffffffffffffffffffffffff1673ffffffffffffffffffffffffffffffffffffffff16815260200190815260200160002081905550816000808573ffffffffffffffffffffffffffffffffffffffff1673ffffffffffffffffffffffffffffffffffffffff168152602001908152602001600020600082825401925050819055508273ffffffffffffffffffffffffffffffffffffffff168473ffffffffffffffffffffffffffffffffffffffff167fddf252ad1be2c89b69c2b068fc378daa952ba7f163c4a11628f55a4df523b3ef8460405161225091906128ce565b60405180910390a361226384848461267d565b50505050565b600073ffffffffffffffffffffffffffffffffffffffff168273ffffffffffffffffffffffffffffffffffffffff16036122d8576040517f08c379a00000000000000000000000000000000000000000000000000000000081526004016122cf9061374d565b60405180910390fd5b6122e482600083612678565b60008060008473ffffffffffffffffffffffffffffffffffffffff1673ffffffffffffffffffffffffffffffffffffffff1681526020019081526020016000205490508181101561236a576040517f08c379a0000000000000000000000000000000000000000000000000000000008152600401612361906137df565b60405180910390fd5b8181036000808573ffffffffffffffffffffffffffffffffffffffff1673ffffffffffffffffffffffffffffffffffffffff1681526020019081526020016000208190555081600260008282540392505081905550600073ffffffffffffffffffffffffffffffffffffffff168373ffffffffffffffffffffffffffffffffffffffff167fddf252ad1be2c89b69c2b068fc378daa952ba7f163c4a11628f55a4df523b3ef8460405161241d91906128ce565b60405180910390a36124318360008461267d565b505050565b60008282846124459190612d02565b9150811115612489576040517f08c379a00000000000000000000000000000000000000000000000000000000081526004016124809061384b565b60405180910390fd5b92915050565b600060038211156124f657819050600060016002846124ae9190612d65565b6124b89190612d96565b90505b818110156124f05780915060028182856124d59190612d65565b6124df9190612d96565b6124e99190612d65565b90506124bb565b50612504565b6000821461250357600190505b5b919050565b6000818310612518578161251a565b825b905092915050565b600073ffffffffffffffffffffffffffffffffffffffff168273ffffffffffffffffffffffffffffffffffffffff1603612591576040517f08c379a0000000000000000000000000000000000000000000000000000000008152600401612588906138b7565b60405180910390fd5b61259d60008383612678565b80600260008282546125af9190612d96565b92505081905550806000808473ffffffffffffffffffffffffffffffffffffffff1673ffffffffffffffffffffffffffffffffffffffff168152602001908152602001600020600082825401925050819055508173ffffffffffffffffffffffffffffffffffffffff16600073ffffffffffffffffffffffffffffffffffffffff167fddf252ad1be2c89b69c2b068fc378daa952ba7f163c4a11628f55a4df523b3ef8360405161266091906128ce565b60405180910390a36126746000838361267d565b5050565b505050565b505050565b600081519050919050565b600082825260208201905092915050565b60005b838110156126bc5780820151818401526020810190506126a1565b60008484015250505050565b6000601f19601f8301169050919050565b60006126e482612682565b6126ee818561268d565b93506126fe81856020860161269e565b612707816126c8565b840191505092915050565b6000602082019050818103600083015261272c81846126d9565b905092915050565b6000819050919050565b61274781612734565b82525050565b6000604082019050612762600083018561273e565b61276f602083018461273e565b9392505050565b600080fd5b600073ffffffffffffffffffffffffffffffffffffffff82169050919050565b60006127a68261277b565b9050919050565b6127b68161279b565b81146127c157600080fd5b50565b6000813590506127d3816127ad565b92915050565b6127e281612734565b81146127ed57600080fd5b50565b6000813590506127ff816127d9565b92915050565b6000806040838503121561281c5761281b612776565b5b600061282a858286016127c4565b925050602061283b858286016127f0565b9150509250929050565b60008115159050919050565b61285a81612845565b82525050565b60006020820190506128756000830184612851565b92915050565b60008060006060848603121561289457612893612776565b5b60006128a2868287016127f0565b93505060206128b3868287016127c4565b92505060406128c4868287016127c4565b9150509250925092565b60006020820190506128e3600083018461273e565b92915050565b6128f28161279b565b82525050565b600060208201905061290d60008301846128e9565b92915050565b60008060006060848603121561292c5761292b612776565b5b600061293a868287016127c4565b935050602061294b868287016127c4565b925050604061295c868287016127f0565b9150509250925092565b600060ff82169050919050565b61297c81612966565b82525050565b60006020820190506129976000830184612973565b92915050565b60006129a88261277b565b9050919050565b6129b88161299d565b82525050565b60006020820190506129d360008301846129af565b92915050565b6000602082840312156129ef576129ee612776565b5b60006129fd848285016127c4565b91505092915050565b60008060008060808587031215612a2057612a1f612776565b5b6000612a2e878288016127f0565b9450506020612a3f878288016127f0565b9350506040612a50878288016127c4565b9250506060612a61878288016127c4565b91505092959194509250565b60008060408385031215612a8457612a83612776565b5b6000612a92858286016127f0565b9250506020612aa3858286016127f0565b9150509250929050565b60008060408385031215612ac457612ac3612776565b5b6000612ad2858286016127c4565b9250506020612ae3858286016127c4565b9150509250929050565b7f4e487b7100000000000000000000000000000000000000000000000000000000600052602260045260246000fd5b60006002820490506001821680612b3457607f821691505b602082108103612b4757612b46612aed565b5b50919050565b7f496e76616c696420616d6f756e74000000000000000000000000000000000000600082015250565b6000612b83600e8361268d565b9150612b8e82612b4d565b602082019050919050565b60006020820190508181036000830152612bb281612b76565b9050919050565b7f496e76616c696420746f6b656e4f757400000000000000000000000000000000600082015250565b6000612bef60108361268d565b9150612bfa82612bb9565b602082019050919050565b60006020820190508181036000830152612c1e81612be2565b9050919050565b7f496e76616c696420746f6b656e496e0000000000000000000000000000000000600082015250565b6000612c5b600f8361268d565b9150612c6682612c25565b602082019050919050565b60006020820190508181036000830152612c8a81612c4e565b9050919050565b7f4e487b7100000000000000000000000000000000000000000000000000000000600052601160045260246000fd5b6000612ccb82612734565b9150612cd683612734565b9250828202612ce481612734565b91508282048414831517612cfb57612cfa612c91565b5b5092915050565b6000612d0d82612734565b9150612d1883612734565b9250828203905081811115612d3057612d2f612c91565b5b92915050565b7f4e487b7100000000000000000000000000000000000000000000000000000000600052601260045260246000fd5b6000612d7082612734565b9150612d7b83612734565b925082612d8b57612d8a612d36565b5b828204905092915050565b6000612da182612734565b9150612dac83612734565b9250828201905080821115612dc457612dc3612c91565b5b92915050565b600081519050612dd9816127d9565b92915050565b600060208284031215612df557612df4612776565b5b6000612e0384828501612dca565b91505092915050565b7f556e697377617056323a20494e53554646494349454e545f4c4951554944495460008201527f595f4255524e4544000000000000000000000000000000000000000000000000602082015250565b6000612e6860288361268d565b9150612e7382612e0c565b604082019050919050565b60006020820190508181036000830152612e9781612e5b565b9050919050565b7f496e76616c6964206d696e20616d6f756e740000000000000000000000000000600082015250565b6000612ed460128361268d565b9150612edf82612e9e565b602082019050919050565b60006020820190508181036000830152612f0381612ec7565b9050919050565b7f496e73756666696369656e74204554482062616c616e63650000000000000000600082015250565b6000612f4060188361268d565b9150612f4b82612f0a565b602082019050919050565b60006020820190508181036000830152612f6f81612f33565b9050919050565b7f496e73756666696369656e7420746f6b656e2062616c616e6365000000000000600082015250565b6000612fac601a8361268d565b9150612fb782612f76565b602082019050919050565b60006020820190508181036000830152612fdb81612f9f565b9050919050565b7f536c697070616765206578636565646564000000000000000000000000000000600082015250565b600061301860118361268d565b915061302382612fe2565b602082019050919050565b600060208201905081810360008301526130478161300b565b9050919050565b600060608201905061306360008301866128e9565b61307060208301856128e9565b61307d604083018461273e565b949350505050565b61308e81612845565b811461309957600080fd5b50565b6000815190506130ab81613085565b92915050565b6000602082840312156130c7576130c6612776565b5b60006130d58482850161309c565b91505092915050565b7f5472616e73666572206661696c65640000000000000000000000000000000000600082015250565b6000613114600f8361268d565b915061311f826130de565b602082019050919050565b6000602082019050818103600083015261314381613107565b9050919050565b600060408201905061315f60008301856128e9565b61316c602083018461273e565b9392505050565b7f546f6b656e20616d6f756e74206d75737420626520677265617465722074686160008201527f6e20300000000000000000000000000000000000000000000000000000000000602082015250565b60006131cf60238361268d565b91506131da82613173565b604082019050919050565b600060208201905081810360008301526131fe816131c2565b9050919050565b7f556e697377617056323a20494e53554646494349454e545f4c4951554944495460008201527f595f4d494e544544000000000000000000000000000000000000000000000000602082015250565b600061326160288361268d565b915061326c82613205565b604082019050919050565b6000602082019050818103600083015261329081613254565b9050919050565b7f45524332303a2064656372656173656420616c6c6f77616e63652062656c6f7760008201527f207a65726f000000000000000000000000000000000000000000000000000000602082015250565b60006132f360258361268d565b91506132fe82613297565b604082019050919050565b60006020820190508181036000830152613322816132e6565b9050919050565b7f45524332303a20617070726f76652066726f6d20746865207a65726f2061646460008201527f7265737300000000000000000000000000000000000000000000000000000000602082015250565b600061338560248361268d565b915061339082613329565b604082019050919050565b600060208201905081810360008301526133b481613378565b9050919050565b7f45524332303a20617070726f766520746f20746865207a65726f20616464726560008201527f7373000000000000000000000000000000000000000000000000000000000000602082015250565b600061341760228361268d565b9150613422826133bb565b604082019050919050565b600060208201905081810360008301526134468161340a565b9050919050565b7f64732d6d6174682d6d756c2d6f766572666c6f77000000000000000000000000600082015250565b600061348360148361268d565b915061348e8261344d565b602082019050919050565b600060208201905081810360008301526134b281613476565b9050919050565b7f45524332303a20696e73756666696369656e7420616c6c6f77616e6365000000600082015250565b60006134ef601d8361268d565b91506134fa826134b9565b602082019050919050565b6000602082019050818103600083015261351e816134e2565b9050919050565b7f45524332303a207472616e736665722066726f6d20746865207a65726f20616460008201527f6472657373000000000000000000000000000000000000000000000000000000602082015250565b600061358160258361268d565b915061358c82613525565b604082019050919050565b600060208201905081810360008301526135b081613574565b9050919050565b7f45524332303a207472616e7366657220746f20746865207a65726f206164647260008201527f6573730000000000000000000000000000000000000000000000000000000000602082015250565b600061361360238361268d565b915061361e826135b7565b604082019050919050565b6000602082019050818103600083015261364281613606565b9050919050565b7f45524332303a207472616e7366657220616d6f756e742065786365656473206260008201527f616c616e63650000000000000000000000000000000000000000000000000000602082015250565b60006136a560268361268d565b91506136b082613649565b604082019050919050565b600060208201905081810360008301526136d481613698565b9050919050565b7f45524332303a206275726e2066726f6d20746865207a65726f2061646472657360008201527f7300000000000000000000000000000000000000000000000000000000000000602082015250565b600061373760218361268d565b9150613742826136db565b604082019050919050565b600060208201905081810360008301526137668161372a565b9050919050565b7f45524332303a206275726e20616d6f756e7420657863656564732062616c616e60008201527f6365000000000000000000000000000000000000000000000000000000000000602082015250565b60006137c960228361268d565b91506137d48261376d565b604082019050919050565b600060208201905081810360008301526137f8816137bc565b9050919050565b7f64732d6d6174682d7375622d756e646572666c6f770000000000000000000000600082015250565b600061383560158361268d565b9150613840826137ff565b602082019050919050565b6000602082019050818103600083015261386481613828565b9050919050565b7f45524332303a206d696e7420746f20746865207a65726f206164647265737300600082015250565b60006138a1601f8361268d565b91506138ac8261386b565b602082019050919050565b600060208201905081810360008301526138d081613894565b905091905056fea2646970667358221220fd90b056bce146d347903f3882e9cb93a30eb9c72cf1a9f8b8415eda19cfdb1664736f6c63430008120033",
  "linkReferences": {},
  "deployedLinkReferences": {}
}