{
  "_format": "hh-sol-artifact-1",
  "contractName": "Info",
  "sourceName": "contracts/info.sol",
  "abi": [
    {
      "inputs": [
        {
          "internalType": "address",
          "name": "_pUser",
          "type": "address"
        },
        {
          "internalType": "address",
          "name": "_enterPrisem",
          "type": "address"
        },
        {
          "internalType": "address payable",
          "name": "_ctToken",
          "type": "address"
        },
        {
          "internalType": "address",
          "name": "cRecord",
          "type": "address"
        }
      ],
      "stateMutability": "nonpayable",
      "type": "constructor"
    },
    {
      "anonymous": false,
      "inputs": [
        {
          "indexed": false,
          "internalType": "address",
          "name": "addr",
          "type": "address"
        }
      ],
      "name": "NotCompany",
      "type": "event"
    },
    {
      "anonymous": false,
      "inputs": [
        {
          "indexed": false,
          "internalType": "address",
          "name": "addr",
          "type": "address"
        }
      ],
      "name": "NotUser",
      "type": "event"
    },
    {
      "inputs": [
        {
          "internalType": "uint256",
          "name": "",
          "type": "uint256"
        }
      ],
      "name": "Companies",
      "outputs": [
        {
          "internalType": "address",
          "name": "addr",
          "type": "address"
        },
        {
          "internalType": "uint256",
          "name": "qutoa",
          "type": "uint256"
        },
        {
          "internalType": "uint256",
          "name": "total_emission",
          "type": "uint256"
        },
        {
          "internalType": "uint256",
          "name": "balance",
          "type": "uint256"
        },
        {
          "internalType": "bool",
          "name": "isDistributed",
          "type": "bool"
        }
      ],
      "stateMutability": "view",
      "type": "function"
    },
    {
      "inputs": [],
      "name": "_carbonRecord",
      "outputs": [
        {
          "internalType": "contract carbonRecord",
          "name": "",
          "type": "address"
        }
      ],
      "stateMutability": "view",
      "type": "function"
    },
    {
      "inputs": [
        {
          "internalType": "uint256",
          "name": "",
          "type": "uint256"
        }
      ],
      "name": "allUser",
      "outputs": [
        {
          "internalType": "address",
          "name": "addr",
          "type": "address"
        },
        {
          "internalType": "uint256",
          "name": "qutoa",
          "type": "uint256"
        },
        {
          "internalType": "uint256",
          "name": "total_emission",
          "type": "uint256"
        },
        {
          "internalType": "uint256",
          "name": "balance",
          "type": "uint256"
        },
        {
          "internalType": "bool",
          "name": "isDistributed",
          "type": "bool"
        }
      ],
      "stateMutability": "view",
      "type": "function"
    },
    {
      "inputs": [],
      "name": "cTToken",
      "outputs": [
        {
          "internalType": "contract CTToken",
          "name": "",
          "type": "address"
        }
      ],
      "stateMutability": "view",
      "type": "function"
    },
    {
      "inputs": [],
      "name": "enterPrise",
      "outputs": [
        {
          "internalType": "contract Enterprise",
          "name": "",
          "type": "address"
        }
      ],
      "stateMutability": "view",
      "type": "function"
    },
    {
      "inputs": [
        {
          "internalType": "address",
          "name": "addrss",
          "type": "address"
        }
      ],
      "name": "findCompany",
      "outputs": [
        {
          "components": [
            {
              "internalType": "address",
              "name": "addr",
              "type": "address"
            },
            {
              "internalType": "uint256",
              "name": "qutoa",
              "type": "uint256"
            },
            {
              "internalType": "uint256",
              "name": "total_emission",
              "type": "uint256"
            },
            {
              "internalType": "uint256",
              "name": "balance",
              "type": "uint256"
            },
            {
              "internalType": "bool",
              "name": "isDistributed",
              "type": "bool"
            }
          ],
          "internalType": "struct Info.EnterpriseInfo",
          "name": "",
          "type": "tuple"
        }
      ],
      "stateMutability": "view",
      "type": "function"
    },
    {
      "inputs": [
        {
          "internalType": "address",
          "name": "addrss",
          "type": "address"
        }
      ],
      "name": "findUser",
      "outputs": [
        {
          "components": [
            {
              "internalType": "address",
              "name": "addr",
              "type": "address"
            },
            {
              "internalType": "uint256",
              "name": "qutoa",
              "type": "uint256"
            },
            {
              "internalType": "uint256",
              "name": "total_emission",
              "type": "uint256"
            },
            {
              "internalType": "uint256",
              "name": "balance",
              "type": "uint256"
            },
            {
              "internalType": "bool",
              "name": "isDistributed",
              "type": "bool"
            }
          ],
          "internalType": "struct Info.UserInfo",
          "name": "",
          "type": "tuple"
        }
      ],
      "stateMutability": "view",
      "type": "function"
    },
    {
      "inputs": [],
      "name": "getAllCompany",
      "outputs": [
        {
          "components": [
            {
              "internalType": "address",
              "name": "addr",
              "type": "address"
            },
            {
              "internalType": "uint256",
              "name": "qutoa",
              "type": "uint256"
            },
            {
              "internalType": "uint256",
              "name": "total_emission",
              "type": "uint256"
            },
            {
              "internalType": "uint256",
              "name": "balance",
              "type": "uint256"
            },
            {
              "internalType": "bool",
              "name": "isDistributed",
              "type": "bool"
            }
          ],
          "internalType": "struct Info.EnterpriseInfo[]",
          "name": "",
          "type": "tuple[]"
        }
      ],
      "stateMutability": "view",
      "type": "function"
    },
    {
      "inputs": [],
      "name": "getAllUser",
      "outputs": [
        {
          "components": [
            {
              "internalType": "address",
              "name": "addr",
              "type": "address"
            },
            {
              "internalType": "uint256",
              "name": "qutoa",
              "type": "uint256"
            },
            {
              "internalType": "uint256",
              "name": "total_emission",
              "type": "uint256"
            },
            {
              "internalType": "uint256",
              "name": "balance",
              "type": "uint256"
            },
            {
              "internalType": "bool",
              "name": "isDistributed",
              "type": "bool"
            }
          ],
          "internalType": "struct Info.UserInfo[]",
          "name": "",
          "type": "tuple[]"
        }
      ],
      "stateMutability": "view",
      "type": "function"
    },
    {
      "inputs": [],
      "name": "user",
      "outputs": [
        {
          "internalType": "contract PUserDao",
          "name": "",
          "type": "address"
        }
      ],
      "stateMutability": "view",
      "type": "function"
    }
  ],
  "bytecode": "0x60806040523480156200001157600080fd5b506040516200179a3803806200179a8339818101604052810190620000379190620001f4565b83600260006101000a81548173ffffffffffffffffffffffffffffffffffffffff021916908373ffffffffffffffffffffffffffffffffffffffff16021790555082600360006101000a81548173ffffffffffffffffffffffffffffffffffffffff021916908373ffffffffffffffffffffffffffffffffffffffff16021790555081600460006101000a81548173ffffffffffffffffffffffffffffffffffffffff021916908373ffffffffffffffffffffffffffffffffffffffff16021790555080600560006101000a81548173ffffffffffffffffffffffffffffffffffffffff021916908373ffffffffffffffffffffffffffffffffffffffff1602179055505050505062000266565b600080fd5b600073ffffffffffffffffffffffffffffffffffffffff82169050919050565b600062000177826200014a565b9050919050565b62000189816200016a565b81146200019557600080fd5b50565b600081519050620001a9816200017e565b92915050565b6000620001bc826200014a565b9050919050565b620001ce81620001af565b8114620001da57600080fd5b50565b600081519050620001ee81620001c3565b92915050565b6000806000806080858703121562000211576200021062000145565b5b6000620002218782880162000198565b9450506020620002348782880162000198565b93505060406200024787828801620001dd565b92505060606200025a8782880162000198565b91505092959194509250565b61152480620002766000396000f3fe608060405234801561001057600080fd5b506004361061009e5760003560e01c80636417877811610066578063641787781461014f578063df9d90241461017f578063efeda3d7146101af578063f62ea2aa146101e3578063fbe06518146102015761009e565b80630d2393fd146100a357806345a020a5146100c157806347531df8146100f55780634f8632ba14610113578063592e28ce14610131575b600080fd5b6100ab61021f565b6040516100b89190610ee3565b60405180910390f35b6100db60048036038101906100d69190610f36565b61030d565b6040516100ec959493929190610f90565b60405180910390f35b6100fd610380565b60405161010a91906110fa565b60405180910390f35b61011b61046e565b604051610128919061117b565b60405180910390f35b610139610494565b60405161014691906111b7565b60405180910390f35b610169600480360381019061016491906111fe565b6104ba565b6040516101769190611293565b60405180910390f35b610199600480360381019061019491906111fe565b610862565b6040516101a69190611316565b60405180910390f35b6101c960048036038101906101c49190610f36565b610c0a565b6040516101da959493929190610f90565b60405180910390f35b6101eb610c7d565b6040516101f89190611364565b60405180910390f35b610209610ca3565b60405161021691906113a0565b60405180910390f35b60606001805480602002602001604051908101604052809291908181526020016000905b8282101561030457838290600052602060002090600502016040518060a00160405290816000820160009054906101000a900473ffffffffffffffffffffffffffffffffffffffff1673ffffffffffffffffffffffffffffffffffffffff1673ffffffffffffffffffffffffffffffffffffffff1681526020016001820154815260200160028201548152602001600382015481526020016004820160009054906101000a900460ff16151515158152505081526020019060010190610243565b50505050905090565b6000818154811061031d57600080fd5b90600052602060002090600502016000915090508060000160009054906101000a900473ffffffffffffffffffffffffffffffffffffffff16908060010154908060020154908060030154908060040160009054906101000a900460ff16905085565b60606000805480602002602001604051908101604052809291908181526020016000905b8282101561046557838290600052602060002090600502016040518060a00160405290816000820160009054906101000a900473ffffffffffffffffffffffffffffffffffffffff1673ffffffffffffffffffffffffffffffffffffffff1673ffffffffffffffffffffffffffffffffffffffff1681526020016001820154815260200160028201548152602001600382015481526020016004820160009054906101000a900460ff161515151581525050815260200190600101906103a4565b50505050905090565b600260009054906101000a900473ffffffffffffffffffffffffffffffffffffffff1681565b600560009054906101000a900473ffffffffffffffffffffffffffffffffffffffff1681565b6104c2610cc9565b600360009054906101000a900473ffffffffffffffffffffffffffffffffffffffff1673ffffffffffffffffffffffffffffffffffffffff1663a230c524836040518263ffffffff1660e01b815260040161051d91906113bb565b602060405180830381865afa15801561053a573d6000803e3d6000fd5b505050506040513d601f19601f8201168201806040525081019061055e9190611402565b61059d576040517f08c379a00000000000000000000000000000000000000000000000000000000081526004016105949061148c565b60405180910390fd5b6000600360009054906101000a900473ffffffffffffffffffffffffffffffffffffffff1673ffffffffffffffffffffffffffffffffffffffff16631df8ba776040518163ffffffff1660e01b8152600401602060405180830381865afa15801561060c573d6000803e3d6000fd5b505050506040513d601f19601f8201168201806040525081019061063091906114c1565b90506000600560009054906101000a900473ffffffffffffffffffffffffffffffffffffffff1673ffffffffffffffffffffffffffffffffffffffff166393a7f24e856040518263ffffffff1660e01b815260040161068f91906113bb565b602060405180830381865afa1580156106ac573d6000803e3d6000fd5b505050506040513d601f19601f820116820180604052508101906106d091906114c1565b90506000600460009054906101000a900473ffffffffffffffffffffffffffffffffffffffff1673ffffffffffffffffffffffffffffffffffffffff166370a08231866040518263ffffffff1660e01b815260040161072f91906113bb565b602060405180830381865afa15801561074c573d6000803e3d6000fd5b505050506040513d601f19601f8201168201806040525081019061077091906114c1565b90506000600460009054906101000a900473ffffffffffffffffffffffffffffffffffffffff1673ffffffffffffffffffffffffffffffffffffffff16633e79e481876040518263ffffffff1660e01b81526004016107cf91906113bb565b602060405180830381865afa1580156107ec573d6000803e3d6000fd5b505050506040513d601f19601f820116820180604052508101906108109190611402565b905060006040518060a001604052808873ffffffffffffffffffffffffffffffffffffffff16815260200186815260200185815260200184815260200183151581525090508095505050505050919050565b61086a610d10565b600260009054906101000a900473ffffffffffffffffffffffffffffffffffffffff1673ffffffffffffffffffffffffffffffffffffffff1663a230c524836040518263ffffffff1660e01b81526004016108c591906113bb565b602060405180830381865afa1580156108e2573d6000803e3d6000fd5b505050506040513d601f19601f820116820180604052508101906109069190611402565b610945576040517f08c379a000000000000000000000000000000000000000000000000000000000815260040161093c9061148c565b60405180910390fd5b6000600260009054906101000a900473ffffffffffffffffffffffffffffffffffffffff1673ffffffffffffffffffffffffffffffffffffffff16631df8ba776040518163ffffffff1660e01b8152600401602060405180830381865afa1580156109b4573d6000803e3d6000fd5b505050506040513d601f19601f820116820180604052508101906109d891906114c1565b90506000600560009054906101000a900473ffffffffffffffffffffffffffffffffffffffff1673ffffffffffffffffffffffffffffffffffffffff166393a7f24e856040518263ffffffff1660e01b8152600401610a3791906113bb565b602060405180830381865afa158015610a54573d6000803e3d6000fd5b505050506040513d601f19601f82011682018060405250810190610a7891906114c1565b90506000600460009054906101000a900473ffffffffffffffffffffffffffffffffffffffff1673ffffffffffffffffffffffffffffffffffffffff166370a08231866040518263ffffffff1660e01b8152600401610ad791906113bb565b602060405180830381865afa158015610af4573d6000803e3d6000fd5b505050506040513d601f19601f82011682018060405250810190610b1891906114c1565b90506000600460009054906101000a900473ffffffffffffffffffffffffffffffffffffffff1673ffffffffffffffffffffffffffffffffffffffff16633e79e481876040518263ffffffff1660e01b8152600401610b7791906113bb565b602060405180830381865afa158015610b94573d6000803e3d6000fd5b505050506040513d601f19601f82011682018060405250810190610bb89190611402565b905060006040518060a001604052808873ffffffffffffffffffffffffffffffffffffffff16815260200186815260200185815260200184815260200183151581525090508095505050505050919050565b60018181548110610c1a57600080fd5b90600052602060002090600502016000915090508060000160009054906101000a900473ffffffffffffffffffffffffffffffffffffffff16908060010154908060020154908060030154908060040160009054906101000a900460ff16905085565b600460009054906101000a900473ffffffffffffffffffffffffffffffffffffffff1681565b600360009054906101000a900473ffffffffffffffffffffffffffffffffffffffff1681565b6040518060a00160405280600073ffffffffffffffffffffffffffffffffffffffff1681526020016000815260200160008152602001600081526020016000151581525090565b6040518060a00160405280600073ffffffffffffffffffffffffffffffffffffffff1681526020016000815260200160008152602001600081526020016000151581525090565b600081519050919050565b600082825260208201905092915050565b6000819050602082019050919050565b600073ffffffffffffffffffffffffffffffffffffffff82169050919050565b6000610dae82610d83565b9050919050565b610dbe81610da3565b82525050565b6000819050919050565b610dd781610dc4565b82525050565b60008115159050919050565b610df281610ddd565b82525050565b60a082016000820151610e0e6000850182610db5565b506020820151610e216020850182610dce565b506040820151610e346040850182610dce565b506060820151610e476060850182610dce565b506080820151610e5a6080850182610de9565b50505050565b6000610e6c8383610df8565b60a08301905092915050565b6000602082019050919050565b6000610e9082610d57565b610e9a8185610d62565b9350610ea583610d73565b8060005b83811015610ed6578151610ebd8882610e60565b9750610ec883610e78565b925050600181019050610ea9565b5085935050505092915050565b60006020820190508181036000830152610efd8184610e85565b905092915050565b600080fd5b610f1381610dc4565b8114610f1e57600080fd5b50565b600081359050610f3081610f0a565b92915050565b600060208284031215610f4c57610f4b610f05565b5b6000610f5a84828501610f21565b91505092915050565b610f6c81610da3565b82525050565b610f7b81610dc4565b82525050565b610f8a81610ddd565b82525050565b600060a082019050610fa56000830188610f63565b610fb26020830187610f72565b610fbf6040830186610f72565b610fcc6060830185610f72565b610fd96080830184610f81565b9695505050505050565b600081519050919050565b600082825260208201905092915050565b6000819050602082019050919050565b60a0820160008201516110256000850182610db5565b5060208201516110386020850182610dce565b50604082015161104b6040850182610dce565b50606082015161105e6060850182610dce565b5060808201516110716080850182610de9565b50505050565b6000611083838361100f565b60a08301905092915050565b6000602082019050919050565b60006110a782610fe3565b6110b18185610fee565b93506110bc83610fff565b8060005b838110156110ed5781516110d48882611077565b97506110df8361108f565b9250506001810190506110c0565b5085935050505092915050565b60006020820190508181036000830152611114818461109c565b905092915050565b6000819050919050565b600061114161113c61113784610d83565b61111c565b610d83565b9050919050565b600061115382611126565b9050919050565b600061116582611148565b9050919050565b6111758161115a565b82525050565b6000602082019050611190600083018461116c565b92915050565b60006111a182611148565b9050919050565b6111b181611196565b82525050565b60006020820190506111cc60008301846111a8565b92915050565b6111db81610da3565b81146111e657600080fd5b50565b6000813590506111f8816111d2565b92915050565b60006020828403121561121457611213610f05565b5b6000611222848285016111e9565b91505092915050565b60a0820160008201516112416000850182610db5565b5060208201516112546020850182610dce565b5060408201516112676040850182610dce565b50606082015161127a6060850182610dce565b50608082015161128d6080850182610de9565b50505050565b600060a0820190506112a8600083018461122b565b92915050565b60a0820160008201516112c46000850182610db5565b5060208201516112d76020850182610dce565b5060408201516112ea6040850182610dce565b5060608201516112fd6060850182610dce565b5060808201516113106080850182610de9565b50505050565b600060a08201905061132b60008301846112ae565b92915050565b600061133c82611126565b9050919050565b600061134e82611331565b9050919050565b61135e81611343565b82525050565b60006020820190506113796000830184611355565b92915050565b600061138a82611148565b9050919050565b61139a8161137f565b82525050565b60006020820190506113b56000830184611391565b92915050565b60006020820190506113d06000830184610f63565b92915050565b6113df81610ddd565b81146113ea57600080fd5b50565b6000815190506113fc816113d6565b92915050565b60006020828403121561141857611417610f05565b5b6000611426848285016113ed565b91505092915050565b600082825260208201905092915050565b7f69742773206e6f74206120757365720000000000000000000000000000000000600082015250565b6000611476600f8361142f565b915061148182611440565b602082019050919050565b600060208201905081810360008301526114a581611469565b9050919050565b6000815190506114bb81610f0a565b92915050565b6000602082840312156114d7576114d6610f05565b5b60006114e5848285016114ac565b9150509291505056fea2646970667358221220a9b8386a09355e4eaaf050bb1df34f5afa118d0b451c5fdac57cd424917be61564736f6c63430008120033",
  "linkReferences": {},
  "deployedLinkReferences": {}
}