{
  "_format": "hh-sol-artifact-1",
  "contractName": "oracle",
  "sourceName": "contracts/oracle.sol",
  "abi": [
    {
      "anonymous": false,
      "inputs": [
        {
          "indexed": false,
          "internalType": "address",
          "name": "from",
          "type": "address"
        }
      ],
      "name": "GetPara",
      "type": "event"
    },
    {
      "anonymous": false,
      "inputs": [
        {
          "indexed": false,
          "internalType": "address",
          "name": "from",
          "type": "address"
        }
      ],
      "name": "GetProof",
      "type": "event"
    },
    {
      "inputs": [
        {
          "internalType": "address",
          "name": "user",
          "type": "address"
        }
      ],
      "name": "getIsTrueOfuser",
      "outputs": [
        {
          "internalType": "bool",
          "name": "",
          "type": "bool"
        }
      ],
      "stateMutability": "view",
      "type": "function"
    },
    {
      "inputs": [
        {
          "internalType": "address",
          "name": "user",
          "type": "address"
        }
      ],
      "name": "getPara",
      "outputs": [],
      "stateMutability": "nonpayable",
      "type": "function"
    },
    {
      "inputs": [
        {
          "internalType": "address",
          "name": "user",
          "type": "address"
        }
      ],
      "name": "getParaOfuser",
      "outputs": [
        {
          "internalType": "uint256",
          "name": "",
          "type": "uint256"
        }
      ],
      "stateMutability": "view",
      "type": "function"
    },
    {
      "inputs": [],
      "name": "getParahash",
      "outputs": [
        {
          "internalType": "bytes32",
          "name": "",
          "type": "bytes32"
        }
      ],
      "stateMutability": "pure",
      "type": "function"
    },
    {
      "inputs": [
        {
          "internalType": "address",
          "name": "user",
          "type": "address"
        }
      ],
      "name": "getProof",
      "outputs": [],
      "stateMutability": "nonpayable",
      "type": "function"
    },
    {
      "inputs": [
        {
          "internalType": "address",
          "name": "user",
          "type": "address"
        }
      ],
      "name": "getProofOfuser",
      "outputs": [
        {
          "components": [
            {
              "internalType": "bytes32[]",
              "name": "proofOfuser",
              "type": "bytes32[]"
            },
            {
              "internalType": "uint256",
              "name": "index",
              "type": "uint256"
            },
            {
              "internalType": "bool",
              "name": "IsTrue",
              "type": "bool"
            },
            {
              "internalType": "uint256",
              "name": "amount",
              "type": "uint256"
            }
          ],
          "internalType": "struct oracle.Merkleinfo",
          "name": "",
          "type": "tuple"
        }
      ],
      "stateMutability": "view",
      "type": "function"
    },
    {
      "inputs": [],
      "name": "getProofSignature",
      "outputs": [
        {
          "internalType": "bytes32",
          "name": "",
          "type": "bytes32"
        }
      ],
      "stateMutability": "pure",
      "type": "function"
    },
    {
      "inputs": [
        {
          "internalType": "address",
          "name": "user",
          "type": "address"
        },
        {
          "internalType": "uint256",
          "name": "Para",
          "type": "uint256"
        }
      ],
      "name": "setPara",
      "outputs": [],
      "stateMutability": "nonpayable",
      "type": "function"
    },
    {
      "inputs": [
        {
          "internalType": "address",
          "name": "user",
          "type": "address"
        },
        {
          "internalType": "bytes32[]",
          "name": "Proof",
          "type": "bytes32[]"
        },
        {
          "internalType": "uint256",
          "name": "_index",
          "type": "uint256"
        },
        {
          "internalType": "uint256",
          "name": "amount",
          "type": "uint256"
        },
        {
          "internalType": "bool",
          "name": "_isTrue",
          "type": "bool"
        }
      ],
      "name": "setProof",
      "outputs": [],
      "stateMutability": "nonpayable",
      "type": "function"
    },
    {
      "inputs": [
        {
          "internalType": "uint256",
          "name": "_index",
          "type": "uint256"
        },
        {
          "internalType": "uint256",
          "name": "_amount",
          "type": "uint256"
        },
        {
          "internalType": "bytes32[]",
          "name": "_proofs",
          "type": "bytes32[]"
        },
        {
          "internalType": "address",
          "name": "user",
          "type": "address"
        },
        {
          "internalType": "bytes32",
          "name": "merkleRoot",
          "type": "bytes32"
        }
      ],
      "name": "verify",
      "outputs": [
        {
          "internalType": "bool",
          "name": "",
          "type": "bool"
        }
      ],
      "stateMutability": "nonpayable",
      "type": "function"
    }
  ],
  "bytecode": "0x608060405234801561001057600080fd5b506110c6806100206000396000f3fe608060405234801561001057600080fd5b506004361061009e5760003560e01c80636c8df240116100665780636c8df240146101595780637029b7081461017557806382b1e33e14610191578063afdee257146101c1578063d69b4ad5146101df5761009e565b806308b4f83d146100a357806327f9b058146100d35780633eea79d1146100ef578063412d7b2c1461010b57806367292c1f1461013b575b600080fd5b6100bd60048036038101906100b89190610a16565b61020f565b6040516100ca9190610acb565b60405180910390f35b6100ed60048036038101906100e89190610c61565b6103b4565b005b61010960048036038101906101049190610cf8565b6104fa565b005b61012560048036038101906101209190610cf8565b610534565b6040516101329190610d34565b60405180910390f35b61014361057c565b6040516101509190610d5e565b60405180910390f35b610173600480360381019061016e9190610cf8565b6105a9565b005b61018f600480360381019061018a9190610d79565b6105e3565b005b6101ab60048036038101906101a69190610cf8565b61062a565b6040516101b89190610ef8565b60405180910390f35b6101c961070a565b6040516101d69190610d5e565b60405180910390f35b6101f960048036038101906101f49190610cf8565b610737565b6040516102069190610acb565b60405180910390f35b60008087848860405160200161022793929190610f83565b604051602081830303815290604052805190602001209050600061028d878780806020026020016040519081016040528093929190818152602001838360200280828437600081840152601f19601f820116905080830192505050505050508584610790565b905060011515811515036102fa5760018060008773ffffffffffffffffffffffffffffffffffffffff1673ffffffffffffffffffffffffffffffffffffffff16815260200190815260200160002060020160006101000a81548160ff021916908315150217905550610356565b6000600160008773ffffffffffffffffffffffffffffffffffffffff1673ffffffffffffffffffffffffffffffffffffffff16815260200190815260200160002060020160006101000a81548160ff0219169083151502179055505b600160008673ffffffffffffffffffffffffffffffffffffffff1673ffffffffffffffffffffffffffffffffffffffff16815260200190815260200160002060020160009054906101000a900460ff16925050509695505050505050565b83600160008773ffffffffffffffffffffffffffffffffffffffff1673ffffffffffffffffffffffffffffffffffffffff168152602001908152602001600020600001908051906020019061040a92919061083f565b5082600160008773ffffffffffffffffffffffffffffffffffffffff1673ffffffffffffffffffffffffffffffffffffffff1681526020019081526020016000206001018190555081600160008773ffffffffffffffffffffffffffffffffffffffff1673ffffffffffffffffffffffffffffffffffffffff1681526020019081526020016000206003018190555080600160008773ffffffffffffffffffffffffffffffffffffffff1673ffffffffffffffffffffffffffffffffffffffff16815260200190815260200160002060020160006101000a81548160ff0219169083151502179055505050505050565b7fa73a6e07be7becfca28cc6ba81d59eda02b467020759f49b1784492cb93a0c92816040516105299190610fcf565b60405180910390a150565b60008060008373ffffffffffffffffffffffffffffffffffffffff1673ffffffffffffffffffffffffffffffffffffffff168152602001908152602001600020549050919050565b6000807f42c2f6aff5c444f55ffb01c4c2a26005bbc000c92d4f15f46a1d54984b1fca9190508091505090565b7f42c2f6aff5c444f55ffb01c4c2a26005bbc000c92d4f15f46a1d54984b1fca91816040516105d89190610fcf565b60405180910390a150565b806000808473ffffffffffffffffffffffffffffffffffffffff1673ffffffffffffffffffffffffffffffffffffffff168152602001908152602001600020819055505050565b61063261088c565b600160008373ffffffffffffffffffffffffffffffffffffffff1673ffffffffffffffffffffffffffffffffffffffff168152602001908152602001600020604051806080016040529081600082018054806020026020016040519081016040528092919081815260200182805480156106cb57602002820191906000526020600020905b8154815260200190600101908083116106b7575b50505050508152602001600182015481526020016002820160009054906101000a900460ff161515151581526020016003820154815250509050919050565b6000807fa73a6e07be7becfca28cc6ba81d59eda02b467020759f49b1784492cb93a0c9290508091505090565b6000600160008373ffffffffffffffffffffffffffffffffffffffff1673ffffffffffffffffffffffffffffffffffffffff16815260200190815260200160002060020160009054906101000a900460ff169050919050565b60008261079d85846107a7565b1490509392505050565b60008082905060005b84518110156107f2576107dd828683815181106107d0576107cf610fea565b5b60200260200101516107fd565b915080806107ea90611048565b9150506107b0565b508091505092915050565b6000818310610815576108108284610828565b610820565b61081f8383610828565b5b905092915050565b600082600052816020526040600020905092915050565b82805482825590600052602060002090810192821561087b579160200282015b8281111561087a57825182559160200191906001019061085f565b5b50905061088891906108b6565b5090565b60405180608001604052806060815260200160008152602001600015158152602001600081525090565b5b808211156108cf5760008160009055506001016108b7565b5090565b6000604051905090565b600080fd5b600080fd5b6000819050919050565b6108fa816108e7565b811461090557600080fd5b50565b600081359050610917816108f1565b92915050565b600080fd5b600080fd5b600080fd5b60008083601f8401126109425761094161091d565b5b8235905067ffffffffffffffff81111561095f5761095e610922565b5b60208301915083602082028301111561097b5761097a610927565b5b9250929050565b600073ffffffffffffffffffffffffffffffffffffffff82169050919050565b60006109ad82610982565b9050919050565b6109bd816109a2565b81146109c857600080fd5b50565b6000813590506109da816109b4565b92915050565b6000819050919050565b6109f3816109e0565b81146109fe57600080fd5b50565b600081359050610a10816109ea565b92915050565b60008060008060008060a08789031215610a3357610a326108dd565b5b6000610a4189828a01610908565b9650506020610a5289828a01610908565b955050604087013567ffffffffffffffff811115610a7357610a726108e2565b5b610a7f89828a0161092c565b94509450506060610a9289828a016109cb565b9250506080610aa389828a01610a01565b9150509295509295509295565b60008115159050919050565b610ac581610ab0565b82525050565b6000602082019050610ae06000830184610abc565b92915050565b6000601f19601f8301169050919050565b7f4e487b7100000000000000000000000000000000000000000000000000000000600052604160045260246000fd5b610b2f82610ae6565b810181811067ffffffffffffffff82111715610b4e57610b4d610af7565b5b80604052505050565b6000610b616108d3565b9050610b6d8282610b26565b919050565b600067ffffffffffffffff821115610b8d57610b8c610af7565b5b602082029050602081019050919050565b6000610bb1610bac84610b72565b610b57565b90508083825260208201905060208402830185811115610bd457610bd3610927565b5b835b81811015610bfd5780610be98882610a01565b845260208401935050602081019050610bd6565b5050509392505050565b600082601f830112610c1c57610c1b61091d565b5b8135610c2c848260208601610b9e565b91505092915050565b610c3e81610ab0565b8114610c4957600080fd5b50565b600081359050610c5b81610c35565b92915050565b600080600080600060a08688031215610c7d57610c7c6108dd565b5b6000610c8b888289016109cb565b955050602086013567ffffffffffffffff811115610cac57610cab6108e2565b5b610cb888828901610c07565b9450506040610cc988828901610908565b9350506060610cda88828901610908565b9250506080610ceb88828901610c4c565b9150509295509295909350565b600060208284031215610d0e57610d0d6108dd565b5b6000610d1c848285016109cb565b91505092915050565b610d2e816108e7565b82525050565b6000602082019050610d496000830184610d25565b92915050565b610d58816109e0565b82525050565b6000602082019050610d736000830184610d4f565b92915050565b60008060408385031215610d9057610d8f6108dd565b5b6000610d9e858286016109cb565b9250506020610daf85828601610908565b9150509250929050565b600081519050919050565b600082825260208201905092915050565b6000819050602082019050919050565b610dee816109e0565b82525050565b6000610e008383610de5565b60208301905092915050565b6000602082019050919050565b6000610e2482610db9565b610e2e8185610dc4565b9350610e3983610dd5565b8060005b83811015610e6a578151610e518882610df4565b9750610e5c83610e0c565b925050600181019050610e3d565b5085935050505092915050565b610e80816108e7565b82525050565b610e8f81610ab0565b82525050565b60006080830160008301518482036000860152610eb28282610e19565b9150506020830151610ec76020860182610e77565b506040830151610eda6040860182610e86565b506060830151610eed6060860182610e77565b508091505092915050565b60006020820190508181036000830152610f128184610e95565b905092915050565b6000819050919050565b610f35610f30826108e7565b610f1a565b82525050565b60008160601b9050919050565b6000610f5382610f3b565b9050919050565b6000610f6582610f48565b9050919050565b610f7d610f78826109a2565b610f5a565b82525050565b6000610f8f8286610f24565b602082019150610f9f8285610f6c565b601482019150610faf8284610f24565b602082019150819050949350505050565b610fc9816109a2565b82525050565b6000602082019050610fe46000830184610fc0565b92915050565b7f4e487b7100000000000000000000000000000000000000000000000000000000600052603260045260246000fd5b7f4e487b7100000000000000000000000000000000000000000000000000000000600052601160045260246000fd5b6000611053826108e7565b91507fffffffffffffffffffffffffffffffffffffffffffffffffffffffffffffffff820361108557611084611019565b5b60018201905091905056fea2646970667358221220ee13cabccf4ad5cd2aa84df308caaa4716ffaf7a54deeb87bc1b96fccbc6012764736f6c63430008120033",
  "linkReferences": {},
  "deployedLinkReferences": {}
}