{
  "_format": "hh-sol-artifact-1",
  "contractName": "CTToken",
  "sourceName": "contracts/carbonToken.sol",
  "abi": [
    {
      "inputs": [],
      "stateMutability": "payable",
      "type": "constructor"
    },
    {
      "anonymous": false,
      "inputs": [
        {
          "indexed": true,
          "internalType": "address",
          "name": "owner",
          "type": "address"
        },
        {
          "indexed": true,
          "internalType": "address",
          "name": "spender",
          "type": "address"
        },
        {
          "indexed": false,
          "internalType": "uint256",
          "name": "value",
          "type": "uint256"
        }
      ],
      "name": "Approval",
      "type": "event"
    },
    {
      "anonymous": false,
      "inputs": [
        {
          "indexed": true,
          "internalType": "address",
          "name": "from",
          "type": "address"
        },
        {
          "indexed": true,
          "internalType": "address",
          "name": "to",
          "type": "address"
        },
        {
          "indexed": false,
          "internalType": "uint256",
          "name": "value",
          "type": "uint256"
        }
      ],
      "name": "Transfer",
      "type": "event"
    },
    {
      "inputs": [],
      "name": "CT_DEFAULT",
      "outputs": [
        {
          "internalType": "uint256",
          "name": "",
          "type": "uint256"
        }
      ],
      "stateMutability": "view",
      "type": "function"
    },
    {
      "inputs": [
        {
          "internalType": "address",
          "name": "addresses",
          "type": "address"
        }
      ],
      "name": "_isDistributed",
      "outputs": [
        {
          "internalType": "bool",
          "name": "",
          "type": "bool"
        }
      ],
      "stateMutability": "view",
      "type": "function"
    },
    {
      "inputs": [],
      "name": "admin",
      "outputs": [
        {
          "internalType": "address",
          "name": "",
          "type": "address"
        }
      ],
      "stateMutability": "view",
      "type": "function"
    },
    {
      "inputs": [
        {
          "internalType": "address",
          "name": "owner",
          "type": "address"
        },
        {
          "internalType": "address",
          "name": "spender",
          "type": "address"
        }
      ],
      "name": "allowance",
      "outputs": [
        {
          "internalType": "uint256",
          "name": "",
          "type": "uint256"
        }
      ],
      "stateMutability": "view",
      "type": "function"
    },
    {
      "inputs": [
        {
          "internalType": "address",
          "name": "spender",
          "type": "address"
        },
        {
          "internalType": "uint256",
          "name": "amount",
          "type": "uint256"
        }
      ],
      "name": "approve",
      "outputs": [
        {
          "internalType": "bool",
          "name": "",
          "type": "bool"
        }
      ],
      "stateMutability": "nonpayable",
      "type": "function"
    },
    {
      "inputs": [
        {
          "internalType": "address",
          "name": "account",
          "type": "address"
        }
      ],
      "name": "balanceOf",
      "outputs": [
        {
          "internalType": "uint256",
          "name": "",
          "type": "uint256"
        }
      ],
      "stateMutability": "view",
      "type": "function"
    },
    {
      "inputs": [
        {
          "internalType": "address",
          "name": "",
          "type": "address"
        }
      ],
      "name": "debts",
      "outputs": [
        {
          "internalType": "uint256",
          "name": "",
          "type": "uint256"
        }
      ],
      "stateMutability": "view",
      "type": "function"
    },
    {
      "inputs": [],
      "name": "decimals",
      "outputs": [
        {
          "internalType": "uint8",
          "name": "",
          "type": "uint8"
        }
      ],
      "stateMutability": "view",
      "type": "function"
    },
    {
      "inputs": [
        {
          "internalType": "address",
          "name": "spender",
          "type": "address"
        },
        {
          "internalType": "uint256",
          "name": "subtractedValue",
          "type": "uint256"
        }
      ],
      "name": "decreaseAllowance",
      "outputs": [
        {
          "internalType": "bool",
          "name": "",
          "type": "bool"
        }
      ],
      "stateMutability": "nonpayable",
      "type": "function"
    },
    {
      "inputs": [],
      "name": "depositETH",
      "outputs": [],
      "stateMutability": "payable",
      "type": "function"
    },
    {
      "inputs": [
        {
          "internalType": "address",
          "name": "addresses",
          "type": "address"
        },
        {
          "internalType": "uint256",
          "name": "amount",
          "type": "uint256"
        }
      ],
      "name": "distributeTokens",
      "outputs": [],
      "stateMutability": "nonpayable",
      "type": "function"
    },
    {
      "inputs": [],
      "name": "getAdmin",
      "outputs": [
        {
          "internalType": "address",
          "name": "",
          "type": "address"
        }
      ],
      "stateMutability": "view",
      "type": "function"
    },
    {
      "inputs": [],
      "name": "getEthBalance",
      "outputs": [
        {
          "internalType": "uint256",
          "name": "",
          "type": "uint256"
        }
      ],
      "stateMutability": "view",
      "type": "function"
    },
    {
      "inputs": [
        {
          "internalType": "address",
          "name": "spender",
          "type": "address"
        },
        {
          "internalType": "uint256",
          "name": "addedValue",
          "type": "uint256"
        }
      ],
      "name": "increaseAllowance",
      "outputs": [
        {
          "internalType": "bool",
          "name": "",
          "type": "bool"
        }
      ],
      "stateMutability": "nonpayable",
      "type": "function"
    },
    {
      "inputs": [
        {
          "internalType": "address",
          "name": "",
          "type": "address"
        }
      ],
      "name": "isAddressInMerkleTree",
      "outputs": [
        {
          "internalType": "bool",
          "name": "",
          "type": "bool"
        }
      ],
      "stateMutability": "view",
      "type": "function"
    },
    {
      "inputs": [],
      "name": "name",
      "outputs": [
        {
          "internalType": "string",
          "name": "",
          "type": "string"
        }
      ],
      "stateMutability": "view",
      "type": "function"
    },
    {
      "inputs": [],
      "name": "nextYear",
      "outputs": [],
      "stateMutability": "nonpayable",
      "type": "function"
    },
    {
      "inputs": [],
      "name": "symbol",
      "outputs": [
        {
          "internalType": "string",
          "name": "",
          "type": "string"
        }
      ],
      "stateMutability": "view",
      "type": "function"
    },
    {
      "inputs": [],
      "name": "totalSupply",
      "outputs": [
        {
          "internalType": "uint256",
          "name": "",
          "type": "uint256"
        }
      ],
      "stateMutability": "view",
      "type": "function"
    },
    {
      "inputs": [
        {
          "internalType": "address",
          "name": "to",
          "type": "address"
        },
        {
          "internalType": "uint256",
          "name": "amount",
          "type": "uint256"
        }
      ],
      "name": "transfer",
      "outputs": [
        {
          "internalType": "bool",
          "name": "",
          "type": "bool"
        }
      ],
      "stateMutability": "nonpayable",
      "type": "function"
    },
    {
      "inputs": [
        {
          "internalType": "address payable",
          "name": "recipient",
          "type": "address"
        },
        {
          "internalType": "uint256",
          "name": "amount",
          "type": "uint256"
        }
      ],
      "name": "transferETHToExternalAccount",
      "outputs": [],
      "stateMutability": "nonpayable",
      "type": "function"
    },
    {
      "inputs": [
        {
          "internalType": "address",
          "name": "from",
          "type": "address"
        },
        {
          "internalType": "address",
          "name": "to",
          "type": "address"
        },
        {
          "internalType": "uint256",
          "name": "amount",
          "type": "uint256"
        }
      ],
      "name": "transferFrom",
      "outputs": [
        {
          "internalType": "bool",
          "name": "",
          "type": "bool"
        }
      ],
      "stateMutability": "nonpayable",
      "type": "function"
    },
    {
      "stateMutability": "payable",
      "type": "receive"
    }
  ],
  "bytecode": "0x60806040526040518060400160405280600281526020017f43540000000000000000000000000000000000000000000000000000000000008152506040518060400160405280600281526020017f4354000000000000000000000000000000000000000000000000000000000000815250816003908162000081919062000541565b50806004908162000093919062000541565b50505033600960006101000a81548173ffffffffffffffffffffffffffffffffffffffff021916908373ffffffffffffffffffffffffffffffffffffffff16021790555062000139600960009054906101000a900473ffffffffffffffffffffffffffffffffffffffff166200010e6200014760201b60201c565b600a6200011c9190620007b8565b633b9aca006200012d919062000809565b6200015060201b60201c565b600160088190555062000940565b60006012905090565b600073ffffffffffffffffffffffffffffffffffffffff168273ffffffffffffffffffffffffffffffffffffffff1603620001c2576040517f08c379a0000000000000000000000000000000000000000000000000000000008152600401620001b990620008b5565b60405180910390fd5b620001d660008383620002bd60201b60201c565b8060026000828254620001ea9190620008d7565b92505081905550806000808473ffffffffffffffffffffffffffffffffffffffff1673ffffffffffffffffffffffffffffffffffffffff168152602001908152602001600020600082825401925050819055508173ffffffffffffffffffffffffffffffffffffffff16600073ffffffffffffffffffffffffffffffffffffffff167fddf252ad1be2c89b69c2b068fc378daa952ba7f163c4a11628f55a4df523b3ef836040516200029d919062000923565b60405180910390a3620002b960008383620002c260201b60201c565b5050565b505050565b505050565b600081519050919050565b7f4e487b7100000000000000000000000000000000000000000000000000000000600052604160045260246000fd5b7f4e487b7100000000000000000000000000000000000000000000000000000000600052602260045260246000fd5b600060028204905060018216806200034957607f821691505b6020821081036200035f576200035e62000301565b5b50919050565b60008190508160005260206000209050919050565b60006020601f8301049050919050565b600082821b905092915050565b600060088302620003c97fffffffffffffffffffffffffffffffffffffffffffffffffffffffffffffffff826200038a565b620003d586836200038a565b95508019841693508086168417925050509392505050565b6000819050919050565b6000819050919050565b6000620004226200041c6200041684620003ed565b620003f7565b620003ed565b9050919050565b6000819050919050565b6200043e8362000401565b620004566200044d8262000429565b84845462000397565b825550505050565b600090565b6200046d6200045e565b6200047a81848462000433565b505050565b5b81811015620004a2576200049660008262000463565b60018101905062000480565b5050565b601f821115620004f157620004bb8162000365565b620004c6846200037a565b81016020851015620004d6578190505b620004ee620004e5856200037a565b8301826200047f565b50505b505050565b600082821c905092915050565b60006200051660001984600802620004f6565b1980831691505092915050565b600062000531838362000503565b9150826002028217905092915050565b6200054c82620002c7565b67ffffffffffffffff811115620005685762000567620002d2565b5b62000574825462000330565b62000581828285620004a6565b600060209050601f831160018114620005b95760008415620005a4578287015190505b620005b0858262000523565b86555062000620565b601f198416620005c98662000365565b60005b82811015620005f357848901518255600182019150602085019450602081019050620005cc565b868310156200061357848901516200060f601f89168262000503565b8355505b6001600288020188555050505b505050505050565b7f4e487b7100000000000000000000000000000000000000000000000000000000600052601160045260246000fd5b60008160011c9050919050565b6000808291508390505b6001851115620006b6578086048111156200068e576200068d62000628565b5b60018516156200069e5780820291505b8081029050620006ae8562000657565b94506200066e565b94509492505050565b600082620006d15760019050620007a4565b81620006e15760009050620007a4565b8160018114620006fa576002811462000705576200073b565b6001915050620007a4565b60ff8411156200071a576200071962000628565b5b8360020a91508482111562000734576200073362000628565b5b50620007a4565b5060208310610133831016604e8410600b8410161715620007755782820a9050838111156200076f576200076e62000628565b5b620007a4565b62000784848484600162000664565b925090508184048111156200079e576200079d62000628565b5b81810290505b9392505050565b600060ff82169050919050565b6000620007c582620003ed565b9150620007d283620007ab565b9250620008017fffffffffffffffffffffffffffffffffffffffffffffffffffffffffffffffff8484620006bf565b905092915050565b60006200081682620003ed565b91506200082383620003ed565b92508282026200083381620003ed565b915082820484148315176200084d576200084c62000628565b5b5092915050565b600082825260208201905092915050565b7f45524332303a206d696e7420746f20746865207a65726f206164647265737300600082015250565b60006200089d601f8362000854565b9150620008aa8262000865565b602082019050919050565b60006020820190508181036000830152620008d0816200088e565b9050919050565b6000620008e482620003ed565b9150620008f183620003ed565b92508282019050808211156200090c576200090b62000628565b5b92915050565b6200091d81620003ed565b82525050565b60006020820190506200093a600083018462000912565b92915050565b61193080620009506000396000f3fe6080604052600436106101395760003560e01c80633f52f56b116100ab57806395d89b411161006f57806395d89b411461045b578063a457c2d714610486578063a9059cbb146104c3578063dd62ed3e14610500578063f6326fb31461053d578063f851a4401461054757610140565b80633f52f56b146103605780636d23932e1461038b5780636e9960c3146103c857806370a08231146103f357806370ed0ada1461043057610140565b806323b872dd116100fd57806323b872dd14610218578063294715d8146102555780632ecd4e7d1461027e578063313ce567146102bb57806339509351146102e65780633e79e4811461032357610140565b806306fdde0314610145578063095ea7b314610170578063146bea7b146101ad578063158a4988146101c457806318160ddd146101ed57610140565b3661014057005b600080fd5b34801561015157600080fd5b5061015a610572565b60405161016791906110b1565b60405180910390f35b34801561017c57600080fd5b506101976004803603810190610192919061116c565b610604565b6040516101a491906111c7565b60405180910390f35b3480156101b957600080fd5b506101c2610627565b005b3480156101d057600080fd5b506101eb60048036038101906101e6919061116c565b610641565b005b3480156101f957600080fd5b50610202610784565b60405161020f91906111f1565b60405180910390f35b34801561022457600080fd5b5061023f600480360381019061023a919061120c565b61078e565b60405161024c91906111c7565b60405180910390f35b34801561026157600080fd5b5061027c6004803603810190610277919061129d565b6107bd565b005b34801561028a57600080fd5b506102a560048036038101906102a091906112dd565b610808565b6040516102b291906111f1565b60405180910390f35b3480156102c757600080fd5b506102d0610820565b6040516102dd9190611326565b60405180910390f35b3480156102f257600080fd5b5061030d6004803603810190610308919061116c565b610829565b60405161031a91906111c7565b60405180910390f35b34801561032f57600080fd5b5061034a600480360381019061034591906112dd565b610860565b60405161035791906111c7565b60405180910390f35b34801561036c57600080fd5b506103756108c9565b60405161038291906111f1565b60405180910390f35b34801561039757600080fd5b506103b260048036038101906103ad91906112dd565b6108cf565b6040516103bf91906111c7565b60405180910390f35b3480156103d457600080fd5b506103dd6108ef565b6040516103ea9190611350565b60405180910390f35b3480156103ff57600080fd5b5061041a600480360381019061041591906112dd565b610919565b60405161042791906111f1565b60405180910390f35b34801561043c57600080fd5b50610445610961565b60405161045291906111f1565b60405180910390f35b34801561046757600080fd5b50610470610969565b60405161047d91906110b1565b60405180910390f35b34801561049257600080fd5b506104ad60048036038101906104a8919061116c565b6109fb565b6040516104ba91906111c7565b60405180910390f35b3480156104cf57600080fd5b506104ea60048036038101906104e5919061116c565b610a72565b6040516104f791906111c7565b60405180910390f35b34801561050c57600080fd5b506105276004803603810190610522919061136b565b610a95565b60405161053491906111f1565b60405180910390f35b610545610b1c565b005b34801561055357600080fd5b5061055c610b1e565b6040516105699190611350565b60405180910390f35b606060038054610581906113da565b80601f01602080910402602001604051908101604052809291908181526020018280546105ad906113da565b80156105fa5780601f106105cf576101008083540402835291602001916105fa565b820191906000526020600020905b8154815290600101906020018083116105dd57829003601f168201915b5050505050905090565b60008061060f610b44565b905061061c818585610b4c565b600191505092915050565b6008600081548092919061063a9061143a565b9190505550565b60001515600560008473ffffffffffffffffffffffffffffffffffffffff1673ffffffffffffffffffffffffffffffffffffffff1681526020019081526020016000206000600854815260200190815260200160002060009054906101000a900460ff161515146106e7576040517f08c379a00000000000000000000000000000000000000000000000000000000081526004016106de906114ce565b60405180910390fd5b610714600960009054906101000a900473ffffffffffffffffffffffffffffffffffffffff16838361078e565b506001600560008473ffffffffffffffffffffffffffffffffffffffff1673ffffffffffffffffffffffffffffffffffffffff1681526020019081526020016000206000600854815260200190815260200160002060006101000a81548160ff0219169083151502179055505050565b6000600254905090565b600080610799610b44565b90506107a6858285610d15565b6107b1858585610da1565b60019150509392505050565b8173ffffffffffffffffffffffffffffffffffffffff166108fc829081150290604051600060405180830381858888f19350505050158015610803573d6000803e3d6000fd5b505050565b60076020528060005260406000206000915090505481565b60006012905090565b600080610834610b44565b90506108558185856108468589610a95565b61085091906114ee565b610b4c565b600191505092915050565b6000600560008373ffffffffffffffffffffffffffffffffffffffff1673ffffffffffffffffffffffffffffffffffffffff1681526020019081526020016000206000600854815260200190815260200160002060009054906101000a900460ff169050919050565b6103e881565b60066020528060005260406000206000915054906101000a900460ff1681565b6000600960009054906101000a900473ffffffffffffffffffffffffffffffffffffffff16905090565b60008060008373ffffffffffffffffffffffffffffffffffffffff1673ffffffffffffffffffffffffffffffffffffffff168152602001908152602001600020549050919050565b600047905090565b606060048054610978906113da565b80601f01602080910402602001604051908101604052809291908181526020018280546109a4906113da565b80156109f15780601f106109c6576101008083540402835291602001916109f1565b820191906000526020600020905b8154815290600101906020018083116109d457829003601f168201915b5050505050905090565b600080610a06610b44565b90506000610a148286610a95565b905083811015610a59576040517f08c379a0000000000000000000000000000000000000000000000000000000008152600401610a5090611594565b60405180910390fd5b610a668286868403610b4c565b60019250505092915050565b600080610a7d610b44565b9050610a8a818585610da1565b600191505092915050565b6000600160008473ffffffffffffffffffffffffffffffffffffffff1673ffffffffffffffffffffffffffffffffffffffff16815260200190815260200160002060008373ffffffffffffffffffffffffffffffffffffffff1673ffffffffffffffffffffffffffffffffffffffff16815260200190815260200160002054905092915050565b565b600960009054906101000a900473ffffffffffffffffffffffffffffffffffffffff1681565b600033905090565b600073ffffffffffffffffffffffffffffffffffffffff168373ffffffffffffffffffffffffffffffffffffffff1603610bbb576040517f08c379a0000000000000000000000000000000000000000000000000000000008152600401610bb290611626565b60405180910390fd5b600073ffffffffffffffffffffffffffffffffffffffff168273ffffffffffffffffffffffffffffffffffffffff1603610c2a576040517f08c379a0000000000000000000000000000000000000000000000000000000008152600401610c21906116b8565b60405180910390fd5b80600160008573ffffffffffffffffffffffffffffffffffffffff1673ffffffffffffffffffffffffffffffffffffffff16815260200190815260200160002060008473ffffffffffffffffffffffffffffffffffffffff1673ffffffffffffffffffffffffffffffffffffffff168152602001908152602001600020819055508173ffffffffffffffffffffffffffffffffffffffff168373ffffffffffffffffffffffffffffffffffffffff167f8c5be1e5ebec7d5bd14f71427d1e84f3dd0314c0f7b2291e5b200ac8c7c3b92583604051610d0891906111f1565b60405180910390a3505050565b6000610d218484610a95565b90507fffffffffffffffffffffffffffffffffffffffffffffffffffffffffffffffff8114610d9b5781811015610d8d576040517f08c379a0000000000000000000000000000000000000000000000000000000008152600401610d8490611724565b60405180910390fd5b610d9a8484848403610b4c565b5b50505050565b600073ffffffffffffffffffffffffffffffffffffffff168373ffffffffffffffffffffffffffffffffffffffff1603610e10576040517f08c379a0000000000000000000000000000000000000000000000000000000008152600401610e07906117b6565b60405180910390fd5b600073ffffffffffffffffffffffffffffffffffffffff168273ffffffffffffffffffffffffffffffffffffffff1603610e7f576040517f08c379a0000000000000000000000000000000000000000000000000000000008152600401610e7690611848565b60405180910390fd5b610e8a838383611017565b60008060008573ffffffffffffffffffffffffffffffffffffffff1673ffffffffffffffffffffffffffffffffffffffff16815260200190815260200160002054905081811015610f10576040517f08c379a0000000000000000000000000000000000000000000000000000000008152600401610f07906118da565b60405180910390fd5b8181036000808673ffffffffffffffffffffffffffffffffffffffff1673ffffffffffffffffffffffffffffffffffffffff16815260200190815260200160002081905550816000808573ffffffffffffffffffffffffffffffffffffffff1673ffffffffffffffffffffffffffffffffffffffff168152602001908152602001600020600082825401925050819055508273ffffffffffffffffffffffffffffffffffffffff168473ffffffffffffffffffffffffffffffffffffffff167fddf252ad1be2c89b69c2b068fc378daa952ba7f163c4a11628f55a4df523b3ef84604051610ffe91906111f1565b60405180910390a361101184848461101c565b50505050565b505050565b505050565b600081519050919050565b600082825260208201905092915050565b60005b8381101561105b578082015181840152602081019050611040565b60008484015250505050565b6000601f19601f8301169050919050565b600061108382611021565b61108d818561102c565b935061109d81856020860161103d565b6110a681611067565b840191505092915050565b600060208201905081810360008301526110cb8184611078565b905092915050565b600080fd5b600073ffffffffffffffffffffffffffffffffffffffff82169050919050565b6000611103826110d8565b9050919050565b611113816110f8565b811461111e57600080fd5b50565b6000813590506111308161110a565b92915050565b6000819050919050565b61114981611136565b811461115457600080fd5b50565b60008135905061116681611140565b92915050565b60008060408385031215611183576111826110d3565b5b600061119185828601611121565b92505060206111a285828601611157565b9150509250929050565b60008115159050919050565b6111c1816111ac565b82525050565b60006020820190506111dc60008301846111b8565b92915050565b6111eb81611136565b82525050565b600060208201905061120660008301846111e2565b92915050565b600080600060608486031215611225576112246110d3565b5b600061123386828701611121565b935050602061124486828701611121565b925050604061125586828701611157565b9150509250925092565b600061126a826110d8565b9050919050565b61127a8161125f565b811461128557600080fd5b50565b60008135905061129781611271565b92915050565b600080604083850312156112b4576112b36110d3565b5b60006112c285828601611288565b92505060206112d385828601611157565b9150509250929050565b6000602082840312156112f3576112f26110d3565b5b600061130184828501611121565b91505092915050565b600060ff82169050919050565b6113208161130a565b82525050565b600060208201905061133b6000830184611317565b92915050565b61134a816110f8565b82525050565b60006020820190506113656000830184611341565b92915050565b60008060408385031215611382576113816110d3565b5b600061139085828601611121565b92505060206113a185828601611121565b9150509250929050565b7f4e487b7100000000000000000000000000000000000000000000000000000000600052602260045260246000fd5b600060028204905060018216806113f257607f821691505b602082108103611405576114046113ab565b5b50919050565b7f4e487b7100000000000000000000000000000000000000000000000000000000600052601160045260246000fd5b600061144582611136565b91507fffffffffffffffffffffffffffffffffffffffffffffffffffffffffffffffff82036114775761147661140b565b5b600182019050919050565b7f796f7527766520676f7420697400000000000000000000000000000000000000600082015250565b60006114b8600d8361102c565b91506114c382611482565b602082019050919050565b600060208201905081810360008301526114e7816114ab565b9050919050565b60006114f982611136565b915061150483611136565b925082820190508082111561151c5761151b61140b565b5b92915050565b7f45524332303a2064656372656173656420616c6c6f77616e63652062656c6f7760008201527f207a65726f000000000000000000000000000000000000000000000000000000602082015250565b600061157e60258361102c565b915061158982611522565b604082019050919050565b600060208201905081810360008301526115ad81611571565b9050919050565b7f45524332303a20617070726f76652066726f6d20746865207a65726f2061646460008201527f7265737300000000000000000000000000000000000000000000000000000000602082015250565b600061161060248361102c565b915061161b826115b4565b604082019050919050565b6000602082019050818103600083015261163f81611603565b9050919050565b7f45524332303a20617070726f766520746f20746865207a65726f20616464726560008201527f7373000000000000000000000000000000000000000000000000000000000000602082015250565b60006116a260228361102c565b91506116ad82611646565b604082019050919050565b600060208201905081810360008301526116d181611695565b9050919050565b7f45524332303a20696e73756666696369656e7420616c6c6f77616e6365000000600082015250565b600061170e601d8361102c565b9150611719826116d8565b602082019050919050565b6000602082019050818103600083015261173d81611701565b9050919050565b7f45524332303a207472616e736665722066726f6d20746865207a65726f20616460008201527f6472657373000000000000000000000000000000000000000000000000000000602082015250565b60006117a060258361102c565b91506117ab82611744565b604082019050919050565b600060208201905081810360008301526117cf81611793565b9050919050565b7f45524332303a207472616e7366657220746f20746865207a65726f206164647260008201527f6573730000000000000000000000000000000000000000000000000000000000602082015250565b600061183260238361102c565b915061183d826117d6565b604082019050919050565b6000602082019050818103600083015261186181611825565b9050919050565b7f45524332303a207472616e7366657220616d6f756e742065786365656473206260008201527f616c616e63650000000000000000000000000000000000000000000000000000602082015250565b60006118c460268361102c565b91506118cf82611868565b604082019050919050565b600060208201905081810360008301526118f3816118b7565b905091905056fea264697066735822122045f8d97b4a0f3232664eef5deca6c72b7ae888c6ac1f0f0aa516ab6e51360c8a64736f6c63430008120033",
  "linkReferences": {},
  "deployedLinkReferences": {}
}