{
  "_format": "hh-sol-artifact-1",
  "contractName": "MerkleTreeWithHistory",
  "sourceName": "contracts/merkle-tree-solidity/contracts/MerkleTreeWithHistory.sol",
  "abi": [
    {
      "inputs": [],
      "name": "TREE_HEIGHT",
      "outputs": [
        {
          "internalType": "uint256",
          "name": "",
          "type": "uint256"
        }
      ],
      "stateMutability": "view",
      "type": "function"
    },
    {
      "inputs": [
        {
          "internalType": "uint256",
          "name": "",
          "type": "uint256"
        }
      ],
      "name": "filledSubtrees",
      "outputs": [
        {
          "internalType": "bytes32",
          "name": "",
          "type": "bytes32"
        }
      ],
      "stateMutability": "view",
      "type": "function"
    },
    {
      "inputs": [
        {
          "internalType": "bytes32[]",
          "name": "proof",
          "type": "bytes32[]"
        }
      ],
      "name": "getRoot",
      "outputs": [
        {
          "internalType": "bytes32",
          "name": "",
          "type": "bytes32"
        }
      ],
      "stateMutability": "view",
      "type": "function"
    },
    {
      "inputs": [],
      "name": "initialize",
      "outputs": [],
      "stateMutability": "nonpayable",
      "type": "function"
    },
    {
      "inputs": [
        {
          "internalType": "uint256",
          "name": "",
          "type": "uint256"
        }
      ],
      "name": "zeros",
      "outputs": [
        {
          "internalType": "bytes32",
          "name": "",
          "type": "bytes32"
        }
      ],
      "stateMutability": "view",
      "type": "function"
    }
  ],
  "bytecode": "0x608060405234801561001057600080fd5b50610970806100206000396000f3fe608060405234801561001057600080fd5b50600436106100575760003560e01c80632e08d6021461005c578063436fd9681461008c5780638129fc1c146100aa578063e8295588146100b4578063f178e47c146100e4575b600080fd5b6100766004803603810190610071919061053b565b610114565b6040516100839190610593565b60405180910390f35b61009461018e565b6040516100a191906105c7565b60405180910390f35b6100b2610193565b005b6100ce60048036038101906100c9919061060e565b610201565b6040516100db9190610593565b60405180910390f35b6100fe60048036038101906100f9919061060e565b61021c565b60405161010b9190610593565b60405180910390f35b6000601482511461015a576040517f08c379a000000000000000000000000000000000000000000000000000000000815260040161015190610698565b60405180910390fd5b6101876000806001601461016e91906106e7565b6014811061017f5761017e61071b565b5b015484610237565b9050919050565b601481565b60005b60148110156101fe576000801b601482601481106101b7576101b661071b565b5b0181905550601481601481106101d0576101cf61071b565b5b0154600082601481106101e6576101e561071b565b5b018190555080806101f69061074a565b915050610196565b50565b6014816014811061021157600080fd5b016000915090505481565b6000816014811061022c57600080fd5b016000915090505481565b60008060009050600061026586856000815181106102585761025761071b565b5b6020026020010151610306565b90506000600190505b84518110156102f957600085828151811061028c5761028b61071b565b5b6020026020010151905060006002896102a591906107c1565b036102bb576102b4838261031d565b92506102c8565b6102c5818461031d565b92505b6002886102d591906107f2565b975083806102e29061074a565b9450505080806102f19061074a565b91505061026e565b5080925050509392505050565b6000610315828460001b61031d565b905092915050565b600060028383604051602001610334929190610844565b60405160208183030381529060405260405161035091906108e1565b602060405180830381855afa15801561036d573d6000803e3d6000fd5b5050506040513d601f19601f82011682018060405250810190610390919061090d565b905092915050565b6000604051905090565b600080fd5b600080fd5b600080fd5b6000601f19601f8301169050919050565b7f4e487b7100000000000000000000000000000000000000000000000000000000600052604160045260246000fd5b6103fa826103b1565b810181811067ffffffffffffffff82111715610419576104186103c2565b5b80604052505050565b600061042c610398565b905061043882826103f1565b919050565b600067ffffffffffffffff821115610458576104576103c2565b5b602082029050602081019050919050565b600080fd5b6000819050919050565b6104818161046e565b811461048c57600080fd5b50565b60008135905061049e81610478565b92915050565b60006104b76104b28461043d565b610422565b905080838252602082019050602084028301858111156104da576104d9610469565b5b835b8181101561050357806104ef888261048f565b8452602084019350506020810190506104dc565b5050509392505050565b600082601f830112610522576105216103ac565b5b81356105328482602086016104a4565b91505092915050565b600060208284031215610551576105506103a2565b5b600082013567ffffffffffffffff81111561056f5761056e6103a7565b5b61057b8482850161050d565b91505092915050565b61058d8161046e565b82525050565b60006020820190506105a86000830184610584565b92915050565b6000819050919050565b6105c1816105ae565b82525050565b60006020820190506105dc60008301846105b8565b92915050565b6105eb816105ae565b81146105f657600080fd5b50565b600081359050610608816105e2565b92915050565b600060208284031215610624576106236103a2565b5b6000610632848285016105f9565b91505092915050565b600082825260208201905092915050565b7f496e76616c69642070726f6f66206c656e677468000000000000000000000000600082015250565b600061068260148361063b565b915061068d8261064c565b602082019050919050565b600060208201905081810360008301526106b181610675565b9050919050565b7f4e487b7100000000000000000000000000000000000000000000000000000000600052601160045260246000fd5b60006106f2826105ae565b91506106fd836105ae565b9250828203905081811115610715576107146106b8565b5b92915050565b7f4e487b7100000000000000000000000000000000000000000000000000000000600052603260045260246000fd5b6000610755826105ae565b91507fffffffffffffffffffffffffffffffffffffffffffffffffffffffffffffffff8203610787576107866106b8565b5b600182019050919050565b7f4e487b7100000000000000000000000000000000000000000000000000000000600052601260045260246000fd5b60006107cc826105ae565b91506107d7836105ae565b9250826107e7576107e6610792565b5b828206905092915050565b60006107fd826105ae565b9150610808836105ae565b92508261081857610817610792565b5b828204905092915050565b6000819050919050565b61083e6108398261046e565b610823565b82525050565b6000610850828561082d565b602082019150610860828461082d565b6020820191508190509392505050565b600081519050919050565b600081905092915050565b60005b838110156108a4578082015181840152602081019050610889565b60008484015250505050565b60006108bb82610870565b6108c5818561087b565b93506108d5818560208601610886565b80840191505092915050565b60006108ed82846108b0565b915081905092915050565b60008151905061090781610478565b92915050565b600060208284031215610923576109226103a2565b5b6000610931848285016108f8565b9150509291505056fea2646970667358221220103ecf5e3ac679167fc69b68303bdc96032944bcc2c06730ebc2e79d0eb7fc6964736f6c63430008120033",
  "linkReferences": {},
  "deployedLinkReferences": {}
}