{
  "_format": "hh-sol-artifact-1",
  "contractName": "carbonRecord",
  "sourceName": "contracts/carbonRecord.sol",
  "abi": [
    {
      "inputs": [
        {
          "internalType": "address payable",
          "name": "CtAddress",
          "type": "address"
        },
        {
          "internalType": "address payable",
          "name": "IntendantDaoAddress",
          "type": "address"
        }
      ],
      "stateMutability": "nonpayable",
      "type": "constructor"
    },
    {
      "inputs": [
        {
          "internalType": "address",
          "name": "addr",
          "type": "address"
        }
      ],
      "name": "addDeprave",
      "outputs": [],
      "stateMutability": "nonpayable",
      "type": "function"
    },
    {
      "inputs": [
        {
          "internalType": "uint256",
          "name": "",
          "type": "uint256"
        }
      ],
      "name": "depravedPerson",
      "outputs": [
        {
          "internalType": "address",
          "name": "",
          "type": "address"
        }
      ],
      "stateMutability": "view",
      "type": "function"
    },
    {
      "inputs": [],
      "name": "getDeprave",
      "outputs": [
        {
          "internalType": "address[]",
          "name": "",
          "type": "address[]"
        }
      ],
      "stateMutability": "view",
      "type": "function"
    },
    {
      "inputs": [
        {
          "internalType": "address",
          "name": "addr",
          "type": "address"
        }
      ],
      "name": "getUserEmisson",
      "outputs": [
        {
          "internalType": "uint256",
          "name": "",
          "type": "uint256"
        }
      ],
      "stateMutability": "view",
      "type": "function"
    },
    {
      "inputs": [
        {
          "internalType": "address",
          "name": "addr",
          "type": "address"
        }
      ],
      "name": "isUntrustworthy",
      "outputs": [
        {
          "internalType": "bool",
          "name": "",
          "type": "bool"
        }
      ],
      "stateMutability": "view",
      "type": "function"
    },
    {
      "inputs": [
        {
          "internalType": "address",
          "name": "addr",
          "type": "address"
        },
        {
          "internalType": "uint256",
          "name": "record",
          "type": "uint256"
        }
      ],
      "name": "recordEmission",
      "outputs": [],
      "stateMutability": "nonpayable",
      "type": "function"
    }
  ],
  "bytecode": "0x608060405234801561001057600080fd5b50604051610d9e380380610d9e8339818101604052810190610032919061011e565b81600460006101000a81548173ffffffffffffffffffffffffffffffffffffffff021916908373ffffffffffffffffffffffffffffffffffffffff16021790555080600360006101000a81548173ffffffffffffffffffffffffffffffffffffffff021916908373ffffffffffffffffffffffffffffffffffffffff160217905550505061015e565b600080fd5b600073ffffffffffffffffffffffffffffffffffffffff82169050919050565b60006100eb826100c0565b9050919050565b6100fb816100e0565b811461010657600080fd5b50565b600081519050610118816100f2565b92915050565b60008060408385031215610135576101346100bb565b5b600061014385828601610109565b925050602061015485828601610109565b9150509250929050565b610c318061016d6000396000f3fe608060405234801561001057600080fd5b50600436106100625760003560e01c806303e3d1fa14610067578063093d67e3146100835780637ae22f4e146100b357806393a7f24e146100d15780639f45974d14610101578063b81721b51461011d575b600080fd5b610081600480360381019061007c919061080f565b61014d565b005b61009d60048036038101906100989190610872565b610331565b6040516100aa91906108ae565b60405180910390f35b6100bb610370565b6040516100c89190610987565b60405180910390f35b6100eb60048036038101906100e6919061080f565b6103fe565b6040516100f891906109b8565b60405180910390f35b61011b600480360381019061011691906109d3565b610446565b005b6101376004803603810190610132919061080f565b610750565b6040516101449190610a2e565b60405180910390f35b600360009054906101000a900473ffffffffffffffffffffffffffffffffffffffff1673ffffffffffffffffffffffffffffffffffffffff166361c259d6826040518263ffffffff1660e01b81526004016101a891906108ae565b602060405180830381865afa1580156101c5573d6000803e3d6000fd5b505050506040513d601f19601f820116820180604052508101906101e99190610a75565b8061028c5750600360009054906101000a900473ffffffffffffffffffffffffffffffffffffffff1673ffffffffffffffffffffffffffffffffffffffff1663c3c9df15826040518263ffffffff1660e01b815260040161024a91906108ae565b602060405180830381865afa158015610267573d6000803e3d6000fd5b505050506040513d601f19601f8201168201806040525081019061028b9190610a75565b5b6102cb576040517f08c379a00000000000000000000000000000000000000000000000000000000081526004016102c290610aff565b60405180910390fd5b6002819080600181540180825580915050600190039060005260206000200160009091909190916101000a81548173ffffffffffffffffffffffffffffffffffffffff021916908373ffffffffffffffffffffffffffffffffffffffff16021790555050565b6002818154811061034157600080fd5b906000526020600020016000915054906101000a900473ffffffffffffffffffffffffffffffffffffffff1681565b606060028054806020026020016040519081016040528092919081815260200182805480156103f457602002820191906000526020600020905b8160009054906101000a900473ffffffffffffffffffffffffffffffffffffffff1673ffffffffffffffffffffffffffffffffffffffff16815260200190600101908083116103aa575b5050505050905090565b60008060008373ffffffffffffffffffffffffffffffffffffffff1673ffffffffffffffffffffffffffffffffffffffff168152602001908152602001600020549050919050565b600360009054906101000a900473ffffffffffffffffffffffffffffffffffffffff1673ffffffffffffffffffffffffffffffffffffffff166361c259d6836040518263ffffffff1660e01b81526004016104a191906108ae565b602060405180830381865afa1580156104be573d6000803e3d6000fd5b505050506040513d601f19601f820116820180604052508101906104e29190610a75565b806105855750600360009054906101000a900473ffffffffffffffffffffffffffffffffffffffff1673ffffffffffffffffffffffffffffffffffffffff1663c3c9df15836040518263ffffffff1660e01b815260040161054391906108ae565b602060405180830381865afa158015610560573d6000803e3d6000fd5b505050506040513d601f19601f820116820180604052508101906105849190610a75565b5b6105c4576040517f08c379a00000000000000000000000000000000000000000000000000000000081526004016105bb90610aff565b60405180910390fd5b806000808473ffffffffffffffffffffffffffffffffffffffff1673ffffffffffffffffffffffffffffffffffffffff16815260200190815260200160002060008282546106129190610b4e565b92505081905550600460009054906101000a900473ffffffffffffffffffffffffffffffffffffffff1673ffffffffffffffffffffffffffffffffffffffff166323b872dd83600460009054906101000a900473ffffffffffffffffffffffffffffffffffffffff1673ffffffffffffffffffffffffffffffffffffffff16636e9960c36040518163ffffffff1660e01b8152600401602060405180830381865afa1580156106c5573d6000803e3d6000fd5b505050506040513d601f19601f820116820180604052508101906106e99190610b97565b846040518463ffffffff1660e01b815260040161070893929190610bc4565b6020604051808303816000875af1158015610727573d6000803e3d6000fd5b505050506040513d601f19601f8201168201806040525081019061074b9190610a75565b505050565b600080600160008473ffffffffffffffffffffffffffffffffffffffff1673ffffffffffffffffffffffffffffffffffffffff1681526020019081526020016000205411156107a257600190506107a7565b600090505b919050565b600080fd5b600073ffffffffffffffffffffffffffffffffffffffff82169050919050565b60006107dc826107b1565b9050919050565b6107ec816107d1565b81146107f757600080fd5b50565b600081359050610809816107e3565b92915050565b600060208284031215610825576108246107ac565b5b6000610833848285016107fa565b91505092915050565b6000819050919050565b61084f8161083c565b811461085a57600080fd5b50565b60008135905061086c81610846565b92915050565b600060208284031215610888576108876107ac565b5b60006108968482850161085d565b91505092915050565b6108a8816107d1565b82525050565b60006020820190506108c3600083018461089f565b92915050565b600081519050919050565b600082825260208201905092915050565b6000819050602082019050919050565b6108fe816107d1565b82525050565b600061091083836108f5565b60208301905092915050565b6000602082019050919050565b6000610934826108c9565b61093e81856108d4565b9350610949836108e5565b8060005b8381101561097a5781516109618882610904565b975061096c8361091c565b92505060018101905061094d565b5085935050505092915050565b600060208201905081810360008301526109a18184610929565b905092915050565b6109b28161083c565b82525050565b60006020820190506109cd60008301846109a9565b92915050565b600080604083850312156109ea576109e96107ac565b5b60006109f8858286016107fa565b9250506020610a098582860161085d565b9150509250929050565b60008115159050919050565b610a2881610a13565b82525050565b6000602082019050610a436000830184610a1f565b92915050565b610a5281610a13565b8114610a5d57600080fd5b50565b600081519050610a6f81610a49565b92915050565b600060208284031215610a8b57610a8a6107ac565b5b6000610a9984828501610a60565b91505092915050565b600082825260208201905092915050565b7f6d75737420626520746865204345440000000000000000000000000000000000600082015250565b6000610ae9600f83610aa2565b9150610af482610ab3565b602082019050919050565b60006020820190508181036000830152610b1881610adc565b9050919050565b7f4e487b7100000000000000000000000000000000000000000000000000000000600052601160045260246000fd5b6000610b598261083c565b9150610b648361083c565b9250828201905080821115610b7c57610b7b610b1f565b5b92915050565b600081519050610b91816107e3565b92915050565b600060208284031215610bad57610bac6107ac565b5b6000610bbb84828501610b82565b91505092915050565b6000606082019050610bd9600083018661089f565b610be6602083018561089f565b610bf360408301846109a9565b94935050505056fea2646970667358221220e58eab5bd8cd7c0d5bdec8651675fea934b265d5d1f37f179c9bf2c47aac9da164736f6c63430008120033",
  "linkReferences": {},
  "deployedLinkReferences": {}
}