{
  "_format": "hh-sol-artifact-1",
  "contractName": "Market",
  "sourceName": "contracts/transcation/market.sol",
  "abi": [
    {
      "inputs": [
        {
          "internalType": "address",
          "name": "person",
          "type": "address"
        },
        {
          "internalType": "address",
          "name": "enterprise",
          "type": "address"
        },
        {
          "internalType": "address payable",
          "name": "CtAddress",
          "type": "address"
        }
      ],
      "stateMutability": "nonpayable",
      "type": "constructor"
    },
    {
      "inputs": [
        {
          "internalType": "uint256",
          "name": "orderId",
          "type": "uint256"
        }
      ],
      "name": "cancelOrder",
      "outputs": [],
      "stateMutability": "nonpayable",
      "type": "function"
    },
    {
      "inputs": [
        {
          "internalType": "uint256",
          "name": "purchaseLimit",
          "type": "uint256"
        },
        {
          "internalType": "uint256",
          "name": "unitPrice",
          "type": "uint256"
        }
      ],
      "name": "createOrder",
      "outputs": [],
      "stateMutability": "payable",
      "type": "function"
    },
    {
      "inputs": [],
      "name": "getAllOrders",
      "outputs": [
        {
          "components": [
            {
              "internalType": "uint256",
              "name": "orderId",
              "type": "uint256"
            },
            {
              "internalType": "uint256",
              "name": "purchaseLimit",
              "type": "uint256"
            },
            {
              "internalType": "uint256",
              "name": "unitPrice",
              "type": "uint256"
            },
            {
              "internalType": "uint256",
              "name": "remainingQuantity",
              "type": "uint256"
            },
            {
              "internalType": "bool",
              "name": "isCompleted",
              "type": "bool"
            },
            {
              "internalType": "address",
              "name": "merchant",
              "type": "address"
            },
            {
              "internalType": "uint256",
              "name": "ETHremain",
              "type": "uint256"
            }
          ],
          "internalType": "struct Market.Order[]",
          "name": "",
          "type": "tuple[]"
        }
      ],
      "stateMutability": "view",
      "type": "function"
    },
    {
      "inputs": [],
      "name": "getEthBalance",
      "outputs": [
        {
          "internalType": "uint256",
          "name": "",
          "type": "uint256"
        }
      ],
      "stateMutability": "view",
      "type": "function"
    },
    {
      "inputs": [
        {
          "internalType": "uint256",
          "name": "orderId",
          "type": "uint256"
        }
      ],
      "name": "getOrder",
      "outputs": [
        {
          "components": [
            {
              "internalType": "uint256",
              "name": "orderId",
              "type": "uint256"
            },
            {
              "internalType": "uint256",
              "name": "purchaseLimit",
              "type": "uint256"
            },
            {
              "internalType": "uint256",
              "name": "unitPrice",
              "type": "uint256"
            },
            {
              "internalType": "uint256",
              "name": "remainingQuantity",
              "type": "uint256"
            },
            {
              "internalType": "bool",
              "name": "isCompleted",
              "type": "bool"
            },
            {
              "internalType": "address",
              "name": "merchant",
              "type": "address"
            },
            {
              "internalType": "uint256",
              "name": "ETHremain",
              "type": "uint256"
            }
          ],
          "internalType": "struct Market.Order",
          "name": "",
          "type": "tuple"
        }
      ],
      "stateMutability": "view",
      "type": "function"
    },
    {
      "inputs": [
        {
          "internalType": "uint256",
          "name": "orderId",
          "type": "uint256"
        }
      ],
      "name": "getOrderRemainingQuantity",
      "outputs": [
        {
          "internalType": "uint256",
          "name": "",
          "type": "uint256"
        }
      ],
      "stateMutability": "view",
      "type": "function"
    },
    {
      "inputs": [
        {
          "internalType": "uint256",
          "name": "orderId",
          "type": "uint256"
        },
        {
          "internalType": "uint256",
          "name": "quantity",
          "type": "uint256"
        }
      ],
      "name": "placeOrder",
      "outputs": [],
      "stateMutability": "payable",
      "type": "function"
    },
    {
      "stateMutability": "payable",
      "type": "receive"
    }
  ],
  "bytecode": "0x60806040523480156200001157600080fd5b506040516200187c3803806200187c8339818101604052810190620000379190620001b1565b826000806101000a81548173ffffffffffffffffffffffffffffffffffffffff021916908373ffffffffffffffffffffffffffffffffffffffff16021790555081600160006101000a81548173ffffffffffffffffffffffffffffffffffffffff021916908373ffffffffffffffffffffffffffffffffffffffff16021790555080600260006101000a81548173ffffffffffffffffffffffffffffffffffffffff021916908373ffffffffffffffffffffffffffffffffffffffff1602179055505050506200020d565b600080fd5b600073ffffffffffffffffffffffffffffffffffffffff82169050919050565b6000620001348262000107565b9050919050565b620001468162000127565b81146200015257600080fd5b50565b60008151905062000166816200013b565b92915050565b6000620001798262000107565b9050919050565b6200018b816200016c565b81146200019757600080fd5b50565b600081519050620001ab8162000180565b92915050565b600080600060608486031215620001cd57620001cc62000102565b5b6000620001dd8682870162000155565b9350506020620001f08682870162000155565b925050604062000203868287016200019a565b9150509250925092565b61165f806200021d6000396000f3fe6080604052600436106100745760003560e01c806379109baa1161004e57806379109baa146101115780637bea0d1c1461012d578063843f61e214610158578063d09ef241146101745761007b565b8063258fedb714610080578063514fcac7146100bd57806370ed0ada146100e65761007b565b3661007b57005b600080fd5b34801561008c57600080fd5b506100a760048036038101906100a29190610e81565b6101b1565b6040516100b49190610ebd565b60405180910390f35b3480156100c957600080fd5b506100e460048036038101906100df9190610e81565b610224565b005b3480156100f257600080fd5b506100fb610665565b6040516101089190610ebd565b60405180910390f35b61012b60048036038101906101269190610ed8565b61066d565b005b34801561013957600080fd5b506101426108cc565b60405161014f91906110c0565b60405180910390f35b610172600480360381019061016d9190610ed8565b6109ce565b005b34801561018057600080fd5b5061019b60048036038101906101969190610e81565b610cce565b6040516101a89190611170565b60405180910390f35b600060035482106101f7576040517f08c379a00000000000000000000000000000000000000000000000000000000081526004016101ee906111e8565b60405180910390fd5b6004828154811061020b5761020a611208565b5b9060005260206000209060060201600301549050919050565b60006004828154811061023a57610239611208565b5b906000526020600020906006020190508060040160009054906101000a900460ff161561029c576040517f08c379a000000000000000000000000000000000000000000000000000000000815260040161029390611283565b60405180910390fd5b600160009054906101000a900473ffffffffffffffffffffffffffffffffffffffff1673ffffffffffffffffffffffffffffffffffffffff1663a230c524336040518263ffffffff1660e01b81526004016102f791906112b2565b602060405180830381865afa158015610314573d6000803e3d6000fd5b505050506040513d601f19601f8201168201806040525081019061033891906112f9565b610377576040517f08c379a000000000000000000000000000000000000000000000000000000000815260040161036e90611372565b60405180910390fd5b3373ffffffffffffffffffffffffffffffffffffffff168160040160019054906101000a900473ffffffffffffffffffffffffffffffffffffffff1673ffffffffffffffffffffffffffffffffffffffff1614610409576040517f08c379a0000000000000000000000000000000000000000000000000000000008152600401610400906113de565b60405180910390fd5b6000816003015490508160040160019054906101000a900473ffffffffffffffffffffffffffffffffffffffff1673ffffffffffffffffffffffffffffffffffffffff166108fc829081150290604051600060405180830381858888f1935050505015801561047c573d6000803e3d6000fd5b5060018260040160006101000a81548160ff02191690831515021790555060016004805490506104ac919061142d565b8310156105d257600460016004805490506104c7919061142d565b815481106104d8576104d7611208565b5b9060005260206000209060060201600484815481106104fa576104f9611208565b5b9060005260206000209060060201600082015481600001556001820154816001015560028201548160020155600382015481600301556004820160009054906101000a900460ff168160040160006101000a81548160ff0219169083151502179055506004820160019054906101000a900473ffffffffffffffffffffffffffffffffffffffff168160040160016101000a81548173ffffffffffffffffffffffffffffffffffffffff021916908373ffffffffffffffffffffffffffffffffffffffff160217905550600582015481600501559050505b60048054806105e4576105e3611461565b5b60019003818190600052602060002090600602016000808201600090556001820160009055600282016000905560038201600090556004820160006101000a81549060ff02191690556004820160016101000a81549073ffffffffffffffffffffffffffffffffffffffff0219169055600582016000905550509055505050565b600047905090565b600160009054906101000a900473ffffffffffffffffffffffffffffffffffffffff1673ffffffffffffffffffffffffffffffffffffffff1663a230c524336040518263ffffffff1660e01b81526004016106c891906112b2565b602060405180830381865afa1580156106e5573d6000803e3d6000fd5b505050506040513d601f19601f8201168201806040525081019061070991906112f9565b610748576040517f08c379a000000000000000000000000000000000000000000000000000000000815260040161073f90611372565b60405180910390fd5b3073ffffffffffffffffffffffffffffffffffffffff166108fc828461076e9190611490565b9081150290604051600060405180830381858888f19350505050158015610799573d6000803e3d6000fd5b506000600360008154809291906107af906114d2565b91905055905060046040518060e001604052808381526020018581526020018481526020018581526020016000151581526020013373ffffffffffffffffffffffffffffffffffffffff1681526020013481525090806001815401808255809150506001900390600052602060002090600602016000909190919091506000820151816000015560208201518160010155604082015181600201556060820151816003015560808201518160040160006101000a81548160ff02191690831515021790555060a08201518160040160016101000a81548173ffffffffffffffffffffffffffffffffffffffff021916908373ffffffffffffffffffffffffffffffffffffffff16021790555060c082015181600501555050505050565b60606004805480602002602001604051908101604052809291908181526020016000905b828210156109c557838290600052602060002090600602016040518060e0016040529081600082015481526020016001820154815260200160028201548152602001600382015481526020016004820160009054906101000a900460ff161515151581526020016004820160019054906101000a900473ffffffffffffffffffffffffffffffffffffffff1673ffffffffffffffffffffffffffffffffffffffff1673ffffffffffffffffffffffffffffffffffffffff168152602001600582015481525050815260200190600101906108f0565b50505050905090565b6000600483815481106109e4576109e3611208565b5b906000526020600020906006020190508060040160009054906101000a900460ff1615610a46576040517f08c379a0000000000000000000000000000000000000000000000000000000008152600401610a3d90611283565b60405180910390fd5b8060030154821115610a8d576040517f08c379a0000000000000000000000000000000000000000000000000000000008152600401610a8490611566565b60405180910390fd5b818160020154610a9d9190611490565b471015610adf576040517f08c379a0000000000000000000000000000000000000000000000000000000008152600401610ad6906115d2565b60405180910390fd5b600260009054906101000a900473ffffffffffffffffffffffffffffffffffffffff1673ffffffffffffffffffffffffffffffffffffffff166323b872dd338360040160019054906101000a900473ffffffffffffffffffffffffffffffffffffffff16856040518463ffffffff1660e01b8152600401610b62939291906115f2565b6020604051808303816000875af1158015610b81573d6000803e3d6000fd5b505050506040513d601f19601f82011682018060405250810190610ba591906112f9565b503373ffffffffffffffffffffffffffffffffffffffff166108fc838360020154610bd09190611490565b9081150290604051600060405180830381858888f19350505050158015610bfb573d6000803e3d6000fd5b5081816003016000828254610c10919061142d565b925050819055506000816003015403610cc95760018160040160006101000a81548160ff02191690831515021790555060048381548110610c5457610c53611208565b5b90600052602060002090600602016000808201600090556001820160009055600282016000905560038201600090556004820160006101000a81549060ff02191690556004820160016101000a81549073ffffffffffffffffffffffffffffffffffffffff0219169055600582016000905550505b505050565b610cd6610df1565b6003548210610d1a576040517f08c379a0000000000000000000000000000000000000000000000000000000008152600401610d11906111e8565b60405180910390fd5b60048281548110610d2e57610d2d611208565b5b90600052602060002090600602016040518060e0016040529081600082015481526020016001820154815260200160028201548152602001600382015481526020016004820160009054906101000a900460ff161515151581526020016004820160019054906101000a900473ffffffffffffffffffffffffffffffffffffffff1673ffffffffffffffffffffffffffffffffffffffff1673ffffffffffffffffffffffffffffffffffffffff1681526020016005820154815250509050919050565b6040518060e0016040528060008152602001600081526020016000815260200160008152602001600015158152602001600073ffffffffffffffffffffffffffffffffffffffff168152602001600081525090565b600080fd5b6000819050919050565b610e5e81610e4b565b8114610e6957600080fd5b50565b600081359050610e7b81610e55565b92915050565b600060208284031215610e9757610e96610e46565b5b6000610ea584828501610e6c565b91505092915050565b610eb781610e4b565b82525050565b6000602082019050610ed26000830184610eae565b92915050565b60008060408385031215610eef57610eee610e46565b5b6000610efd85828601610e6c565b9250506020610f0e85828601610e6c565b9150509250929050565b600081519050919050565b600082825260208201905092915050565b6000819050602082019050919050565b610f4d81610e4b565b82525050565b60008115159050919050565b610f6881610f53565b82525050565b600073ffffffffffffffffffffffffffffffffffffffff82169050919050565b6000610f9982610f6e565b9050919050565b610fa981610f8e565b82525050565b60e082016000820151610fc56000850182610f44565b506020820151610fd86020850182610f44565b506040820151610feb6040850182610f44565b506060820151610ffe6060850182610f44565b5060808201516110116080850182610f5f565b5060a082015161102460a0850182610fa0565b5060c082015161103760c0850182610f44565b50505050565b60006110498383610faf565b60e08301905092915050565b6000602082019050919050565b600061106d82610f18565b6110778185610f23565b935061108283610f34565b8060005b838110156110b357815161109a888261103d565b97506110a583611055565b925050600181019050611086565b5085935050505092915050565b600060208201905081810360008301526110da8184611062565b905092915050565b60e0820160008201516110f86000850182610f44565b50602082015161110b6020850182610f44565b50604082015161111e6040850182610f44565b5060608201516111316060850182610f44565b5060808201516111446080850182610f5f565b5060a082015161115760a0850182610fa0565b5060c082015161116a60c0850182610f44565b50505050565b600060e08201905061118560008301846110e2565b92915050565b600082825260208201905092915050565b7f496e76616c6964206f7264657220494400000000000000000000000000000000600082015250565b60006111d260108361118b565b91506111dd8261119c565b602082019050919050565b60006020820190508181036000830152611201816111c5565b9050919050565b7f4e487b7100000000000000000000000000000000000000000000000000000000600052603260045260246000fd5b7f4f7264657220697320616c726561647920636f6d706c65746564000000000000600082015250565b600061126d601a8361118b565b915061127882611237565b602082019050919050565b6000602082019050818103600083015261129c81611260565b9050919050565b6112ac81610f8e565b82525050565b60006020820190506112c760008301846112a3565b92915050565b6112d681610f53565b81146112e157600080fd5b50565b6000815190506112f3816112cd565b92915050565b60006020828403121561130f5761130e610e46565b5b600061131d848285016112e4565b91505092915050565b7f596f7520617265206e6f7420616e20656e746572707269736500000000000000600082015250565b600061135c60198361118b565b915061136782611326565b602082019050919050565b6000602082019050818103600083015261138b8161134f565b9050919050565b7f796f7520617265206e6f7420746865206f776e65720000000000000000000000600082015250565b60006113c860158361118b565b91506113d382611392565b602082019050919050565b600060208201905081810360008301526113f7816113bb565b9050919050565b7f4e487b7100000000000000000000000000000000000000000000000000000000600052601160045260246000fd5b600061143882610e4b565b915061144383610e4b565b925082820390508181111561145b5761145a6113fe565b5b92915050565b7f4e487b7100000000000000000000000000000000000000000000000000000000600052603160045260246000fd5b600061149b82610e4b565b91506114a683610e4b565b92508282026114b481610e4b565b915082820484148315176114cb576114ca6113fe565b5b5092915050565b60006114dd82610e4b565b91507fffffffffffffffffffffffffffffffffffffffffffffffffffffffffffffffff820361150f5761150e6113fe565b5b600182019050919050565b7f5175616e7469747920657863656564732072656d61696e696e67206c696d6974600082015250565b600061155060208361118b565b915061155b8261151a565b602082019050919050565b6000602082019050818103600083015261157f81611543565b9050919050565b7f657863656564206574682062616c616e63650000000000000000000000000000600082015250565b60006115bc60128361118b565b91506115c782611586565b602082019050919050565b600060208201905081810360008301526115eb816115af565b9050919050565b600060608201905061160760008301866112a3565b61161460208301856112a3565b6116216040830184610eae565b94935050505056fea2646970667358221220458e0b0ddfb7dc1ccc50d6ac40a949fcfb90e5251f553d8dce2025b3104eb18264736f6c63430008120033",
  "linkReferences": {},
  "deployedLinkReferences": {}
}